{
  "contractName": "Token",
  "abi": [
    {
      "inputs": [],
      "stateMutability": "nonpayable",
      "type": "constructor"
    },
    {
      "anonymous": false,
      "inputs": [
        {
          "indexed": true,
          "internalType": "address",
          "name": "owner",
          "type": "address"
        },
        {
          "indexed": true,
          "internalType": "address",
          "name": "spender",
          "type": "address"
        },
        {
          "indexed": false,
          "internalType": "uint256",
          "name": "value",
          "type": "uint256"
        }
      ],
      "name": "Approval",
      "type": "event"
    },
    {
      "anonymous": false,
      "inputs": [
        {
          "indexed": true,
          "internalType": "address",
          "name": "from",
          "type": "address"
        },
        {
          "indexed": true,
          "internalType": "address",
          "name": "to",
          "type": "address"
        },
        {
          "indexed": false,
          "internalType": "uint256",
          "name": "value",
          "type": "uint256"
        }
      ],
      "name": "Transfer",
      "type": "event"
    },
    {
      "inputs": [
        {
          "internalType": "address",
          "name": "",
          "type": "address"
        }
      ],
      "name": "balances",
      "outputs": [
        {
          "internalType": "uint256",
          "name": "balance",
          "type": "uint256"
        },
        {
          "internalType": "uint256",
          "name": "lastDividendPoints",
          "type": "uint256"
        }
      ],
      "stateMutability": "view",
      "type": "function",
      "constant": true
    },
    {
      "inputs": [],
      "name": "decimals",
      "outputs": [
        {
          "internalType": "uint256",
          "name": "",
          "type": "uint256"
        }
      ],
      "stateMutability": "view",
      "type": "function",
      "constant": true
    },
    {
      "inputs": [],
      "name": "name",
      "outputs": [
        {
          "internalType": "string",
          "name": "",
          "type": "string"
        }
      ],
      "stateMutability": "view",
      "type": "function",
      "constant": true
    },
    {
      "inputs": [],
      "name": "symbol",
      "outputs": [
        {
          "internalType": "string",
          "name": "",
          "type": "string"
        }
      ],
      "stateMutability": "view",
      "type": "function",
      "constant": true
    },
    {
      "inputs": [],
      "name": "totalSupply",
      "outputs": [
        {
          "internalType": "uint256",
          "name": "",
          "type": "uint256"
        }
      ],
      "stateMutability": "view",
      "type": "function",
      "constant": true
    },
    {
      "inputs": [
        {
          "internalType": "address",
          "name": "_owner",
          "type": "address"
        },
        {
          "internalType": "address",
          "name": "_spender",
          "type": "address"
        }
      ],
      "name": "allowance",
      "outputs": [
        {
          "internalType": "uint256",
          "name": "",
          "type": "uint256"
        }
      ],
      "stateMutability": "view",
      "type": "function",
      "constant": true
    },
    {
      "inputs": [
        {
          "internalType": "address",
          "name": "_to",
          "type": "address"
        },
        {
          "internalType": "uint256",
          "name": "_value",
          "type": "uint256"
        }
      ],
      "name": "transfer",
      "outputs": [
        {
          "internalType": "bool",
          "name": "",
          "type": "bool"
        }
      ],
      "stateMutability": "nonpayable",
      "type": "function"
    },
    {
      "inputs": [
        {
          "internalType": "address",
          "name": "_owner",
          "type": "address"
        }
      ],
      "name": "balanceOf",
      "outputs": [
        {
          "internalType": "uint256",
          "name": "",
          "type": "uint256"
        }
      ],
      "stateMutability": "view",
      "type": "function",
      "constant": true
    },
    {
      "inputs": [
        {
          "internalType": "address",
          "name": "_spender",
          "type": "address"
        },
        {
          "internalType": "uint256",
          "name": "_value",
          "type": "uint256"
        }
      ],
      "name": "approve",
      "outputs": [
        {
          "internalType": "bool",
          "name": "",
          "type": "bool"
        }
      ],
      "stateMutability": "nonpayable",
      "type": "function"
    },
    {
      "inputs": [
        {
          "internalType": "address",
          "name": "_from",
          "type": "address"
        },
        {
          "internalType": "address",
          "name": "_to",
          "type": "address"
        },
        {
          "internalType": "uint256",
          "name": "_value",
          "type": "uint256"
        }
      ],
      "name": "transferFrom",
      "outputs": [
        {
          "internalType": "bool",
          "name": "",
          "type": "bool"
        }
      ],
      "stateMutability": "nonpayable",
      "type": "function"
    },
    {
      "inputs": [],
      "name": "mint",
      "outputs": [],
      "stateMutability": "payable",
      "type": "function",
      "payable": true
    },
    {
      "inputs": [
        {
          "internalType": "address",
          "name": "_addr",
          "type": "address"
        }
      ],
      "name": "getBalance",
      "outputs": [
        {
          "internalType": "uint256",
          "name": "",
          "type": "uint256"
        }
      ],
      "stateMutability": "view",
      "type": "function",
      "constant": true
    },
    {
      "inputs": [
        {
          "internalType": "address",
          "name": "_addr",
          "type": "address"
        }
      ],
      "name": "burn",
      "outputs": [],
      "stateMutability": "nonpayable",
      "type": "function"
    },
    {
      "inputs": [],
      "name": "recordDividend",
      "outputs": [],
      "stateMutability": "payable",
      "type": "function",
      "payable": true
    },
    {
      "inputs": [
        {
          "internalType": "address",
          "name": "payee",
          "type": "address"
        }
      ],
      "name": "getWithdrawableDividend",
      "outputs": [
        {
          "internalType": "uint256",
          "name": "",
          "type": "uint256"
        }
      ],
      "stateMutability": "view",
      "type": "function",
      "constant": true
    },
    {
      "inputs": [
        {
          "internalType": "address payable",
          "name": "dest",
          "type": "address"
        }
      ],
      "name": "withdrawDividend",
      "outputs": [],
      "stateMutability": "nonpayable",
      "type": "function"
    },
    {
      "inputs": [
        {
          "internalType": "uint256",
          "name": "amount",
          "type": "uint256"
        }
      ],
      "name": "disburse",
      "outputs": [],
      "stateMutability": "nonpayable",
      "type": "function"
    }
  ],
  "bytecode": "0x608060405260126000556040518060400160405280600a81526020017f5465737420746f6b656e000000000000000000000000000000000000000000008152506001908051906020019062000056929190620000cf565b506040518060400160405280600481526020017f544553540000000000000000000000000000000000000000000000000000000081525060029080519060200190620000a4929190620000cf565b5060006003556000600455670de0b6b3a7640000600555348015620000c857600080fd5b50620001e4565b828054620000dd906200017f565b90600052602060002090601f0160209004810192826200010157600085556200014d565b82601f106200011c57805160ff19168380011785556200014d565b828001600101855582156200014d579182015b828111156200014c5782518255916020019190600101906200012f565b5b5090506200015c919062000160565b5090565b5b808211156200017b57600081600090555060010162000161565b5090565b600060028204905060018216806200019857607f821691505b60208210811415620001af57620001ae620001b5565b5b50919050565b7f4e487b7100000000000000000000000000000000000000000000000000000000600052602260045260246000fd5b6121e780620001f46000396000f3fe60806040526004361061011b576000357c01000000000000000000000000000000000000000000000000000000009004806370a08231116100b2578063a4138b9b11610081578063a4138b9b14610327578063a9059cbb14610364578063bd77ac2c146103a1578063dd62ed3e146103ca578063f8b2cb4f146104075761011b565b806370a082311461026d57806389afcb44146102aa57806395d89b41146102d35780639c53c0ca146102fe5761011b565b806323b872dd116100ee57806323b872dd146101bd57806327e235e3146101fa578063313ce5671461023857806350ca7555146102635761011b565b806306fdde0314610120578063095ea7b31461014b5780631249c58b1461018857806318160ddd14610192575b600080fd5b34801561012c57600080fd5b50610135610444565b6040516101429190611cbf565b60405180910390f35b34801561015757600080fd5b50610172600480360381019061016d9190611b39565b6104d2565b60405161017f9190611ca4565b60405180910390f35b6101906105c7565b005b34801561019e57600080fd5b506101a7610617565b6040516101b49190611d81565b60405180910390f35b3480156101c957600080fd5b506101e460048036038101906101df9190611aea565b610621565b6040516101f19190611ca4565b60405180910390f35b34801561020657600080fd5b50610221600480360381019061021c9190611a5c565b610c5e565b60405161022f929190611d9c565b60405180910390f35b34801561024457600080fd5b5061024d610c82565b60405161025a9190611d81565b60405180910390f35b61026b610c88565b005b34801561027957600080fd5b50610294600480360381019061028f9190611a5c565b610d03565b6040516102a19190611d81565b60405180910390f35b3480156102b657600080fd5b506102d160048036038101906102cc9190611a5c565b610d4f565b005b3480156102df57600080fd5b506102e8610d9e565b6040516102f59190611cbf565b60405180910390f35b34801561030a57600080fd5b5061032560048036038101906103209190611a85565b610e2c565b005b34801561033357600080fd5b5061034e60048036038101906103499190611a5c565b610e2f565b60405161035b9190611d81565b60405180910390f35b34801561037057600080fd5b5061038b60048036038101906103869190611b39565b610e7b565b6040516103989190611ca4565b60405180910390f35b3480156103ad57600080fd5b506103c860048036038101906103c39190611b75565b611316565b005b3480156103d657600080fd5b506103f160048036038101906103ec9190611aae565b6113ec565b6040516103fe9190611d81565b60405180910390f35b34801561041357600080fd5b5061042e60048036038101906104299190611a5c565b611476565b60405161043b9190611d81565b60405180910390f35b6001805461045190611f83565b80601f016020809104026020016040519081016040528092919081815260200182805461047d90611f83565b80156104ca5780601f1061049f576101008083540402835291602001916104ca565b820191906000526020600020905b8154815290600101906020018083116104ad57829003601f168201915b505050505081565b600081600860003373ffffffffffffffffffffffffffffffffffffffff1673ffffffffffffffffffffffffffffffffffffffff16815260200190815260200160002060008573ffffffffffffffffffffffffffffffffffffffff1673ffffffffffffffffffffffffffffffffffffffff168152602001908152602001600020600001819055508273ffffffffffffffffffffffffffffffffffffffff163373ffffffffffffffffffffffffffffffffffffffff167f8c5be1e5ebec7d5bd14f71427d1e84f3dd0314c0f7b2291e5b200ac8c7c3b925846040516105b59190611d81565b60405180910390a36001905092915050565b600034141561060b576040517f08c379a000000000000000000000000000000000000000000000000000000000815260040161060290611ce1565b60405180910390fd5b6106153334611497565b565b6000600754905090565b600083600061062f82611627565b9050600081111561073a5761064f816004546116f490919063ffffffff16565b6004819055506106aa81600960008573ffffffffffffffffffffffffffffffffffffffff1673ffffffffffffffffffffffffffffffffffffffff1681526020019081526020016000206000015461173e90919063ffffffff16565b600960008473ffffffffffffffffffffffffffffffffffffffff1673ffffffffffffffffffffffffffffffffffffffff16815260200190815260200160002060000181905550600354600960008473ffffffffffffffffffffffffffffffffffffffff1673ffffffffffffffffffffffffffffffffffffffff168152602001908152602001600020600101819055505b84600061074682611627565b9050600081111561085157610766816004546116f490919063ffffffff16565b6004819055506107c181600960008573ffffffffffffffffffffffffffffffffffffffff1673ffffffffffffffffffffffffffffffffffffffff1681526020019081526020016000206000015461173e90919063ffffffff16565b600960008473ffffffffffffffffffffffffffffffffffffffff1673ffffffffffffffffffffffffffffffffffffffff16815260200190815260200160002060000181905550600354600960008473ffffffffffffffffffffffffffffffffffffffff1673ffffffffffffffffffffffffffffffffffffffff168152602001908152602001600020600101819055505b8773ffffffffffffffffffffffffffffffffffffffff168773ffffffffffffffffffffffffffffffffffffffff16141561088a57600080fd5b600073ffffffffffffffffffffffffffffffffffffffff168773ffffffffffffffffffffffffffffffffffffffff1614156108c457600080fd5b600960008973ffffffffffffffffffffffffffffffffffffffff1673ffffffffffffffffffffffffffffffffffffffff1681526020019081526020016000206000015486111561091357600080fd5b600860008973ffffffffffffffffffffffffffffffffffffffff1673ffffffffffffffffffffffffffffffffffffffff16815260200190815260200160002060003373ffffffffffffffffffffffffffffffffffffffff1673ffffffffffffffffffffffffffffffffffffffff1681526020019081526020016000206000015486111561099f57600080fd5b6109f486600960008b73ffffffffffffffffffffffffffffffffffffffff1673ffffffffffffffffffffffffffffffffffffffff168152602001908152602001600020600001546116f490919063ffffffff16565b600960008a73ffffffffffffffffffffffffffffffffffffffff1673ffffffffffffffffffffffffffffffffffffffff16815260200190815260200160002060000181905550610a8f86600960008a73ffffffffffffffffffffffffffffffffffffffff1673ffffffffffffffffffffffffffffffffffffffff1681526020019081526020016000206000015461173e90919063ffffffff16565b600960008973ffffffffffffffffffffffffffffffffffffffff1673ffffffffffffffffffffffffffffffffffffffff16815260200190815260200160002060000181905550610b6786600860008b73ffffffffffffffffffffffffffffffffffffffff1673ffffffffffffffffffffffffffffffffffffffff16815260200190815260200160002060003373ffffffffffffffffffffffffffffffffffffffff1673ffffffffffffffffffffffffffffffffffffffff168152602001908152602001600020600001546116f490919063ffffffff16565b600860008a73ffffffffffffffffffffffffffffffffffffffff1673ffffffffffffffffffffffffffffffffffffffff16815260200190815260200160002060003373ffffffffffffffffffffffffffffffffffffffff1673ffffffffffffffffffffffffffffffffffffffff168152602001908152602001600020600001819055508673ffffffffffffffffffffffffffffffffffffffff168873ffffffffffffffffffffffffffffffffffffffff167fddf252ad1be2c89b69c2b068fc378daa952ba7f163c4a11628f55a4df523b3ef88604051610c479190611d81565b60405180910390a360019450505050509392505050565b60096020528060005260406000206000915090508060000154908060010154905082565b60005481565b610cc5610cb4600754610ca66005543461179c90919063ffffffff16565b61181790919063ffffffff16565b60035461173e90919063ffffffff16565b600381905550610ce03460075461173e90919063ffffffff16565b600781905550610cfb3460045461173e90919063ffffffff16565b600481905550565b6000600960008373ffffffffffffffffffffffffffffffffffffffff1673ffffffffffffffffffffffffffffffffffffffff168152602001908152602001600020600001549050919050565b610d9b81600960008473ffffffffffffffffffffffffffffffffffffffff1673ffffffffffffffffffffffffffffffffffffffff16815260200190815260200160002060000154611861565b50565b60028054610dab90611f83565b80601f0160208091040260200160405190810160405280929190818152602001828054610dd790611f83565b8015610e245780601f10610df957610100808354040283529160200191610e24565b820191906000526020600020905b815481529060010190602001808311610e0757829003601f168201915b505050505081565b50565b6000600960008373ffffffffffffffffffffffffffffffffffffffff1673ffffffffffffffffffffffffffffffffffffffff168152602001908152602001600020600101549050919050565b6000336000610e8982611627565b90506000811115610f9457610ea9816004546116f490919063ffffffff16565b600481905550610f0481600960008573ffffffffffffffffffffffffffffffffffffffff1673ffffffffffffffffffffffffffffffffffffffff1681526020019081526020016000206000015461173e90919063ffffffff16565b600960008473ffffffffffffffffffffffffffffffffffffffff1673ffffffffffffffffffffffffffffffffffffffff16815260200190815260200160002060000181905550600354600960008473ffffffffffffffffffffffffffffffffffffffff1673ffffffffffffffffffffffffffffffffffffffff168152602001908152602001600020600101819055505b846000610fa082611627565b905060008111156110ab57610fc0816004546116f490919063ffffffff16565b60048190555061101b81600960008573ffffffffffffffffffffffffffffffffffffffff1673ffffffffffffffffffffffffffffffffffffffff1681526020019081526020016000206000015461173e90919063ffffffff16565b600960008473ffffffffffffffffffffffffffffffffffffffff1673ffffffffffffffffffffffffffffffffffffffff16815260200190815260200160002060000181905550600354600960008473ffffffffffffffffffffffffffffffffffffffff1673ffffffffffffffffffffffffffffffffffffffff168152602001908152602001600020600101819055505b8673ffffffffffffffffffffffffffffffffffffffff163373ffffffffffffffffffffffffffffffffffffffff1614156110e457600080fd5b600073ffffffffffffffffffffffffffffffffffffffff168773ffffffffffffffffffffffffffffffffffffffff16141561111e57600080fd5b600960003373ffffffffffffffffffffffffffffffffffffffff1673ffffffffffffffffffffffffffffffffffffffff1681526020019081526020016000206000015486111561116d57600080fd5b6111c286600960003373ffffffffffffffffffffffffffffffffffffffff1673ffffffffffffffffffffffffffffffffffffffff168152602001908152602001600020600001546116f490919063ffffffff16565b600960003373ffffffffffffffffffffffffffffffffffffffff1673ffffffffffffffffffffffffffffffffffffffff1681526020019081526020016000206000018190555061125d86600960008a73ffffffffffffffffffffffffffffffffffffffff1673ffffffffffffffffffffffffffffffffffffffff1681526020019081526020016000206000015461173e90919063ffffffff16565b600960008973ffffffffffffffffffffffffffffffffffffffff1673ffffffffffffffffffffffffffffffffffffffff168152602001908152602001600020600001819055508673ffffffffffffffffffffffffffffffffffffffff163373ffffffffffffffffffffffffffffffffffffffff167fddf252ad1be2c89b69c2b068fc378daa952ba7f163c4a11628f55a4df523b3ef886040516113009190611d81565b60405180910390a3600194505050505092915050565b600660009054906101000a900473ffffffffffffffffffffffffffffffffffffffff1673ffffffffffffffffffffffffffffffffffffffff163373ffffffffffffffffffffffffffffffffffffffff161461137057600080fd5b6113ad61139c60075461138e6005548561179c90919063ffffffff16565b61181790919063ffffffff16565b60035461173e90919063ffffffff16565b6003819055506113c88160075461173e90919063ffffffff16565b6007819055506113e38160045461173e90919063ffffffff16565b60048190555050565b6000600860008473ffffffffffffffffffffffffffffffffffffffff1673ffffffffffffffffffffffffffffffffffffffff16815260200190815260200160002060008373ffffffffffffffffffffffffffffffffffffffff1673ffffffffffffffffffffffffffffffffffffffff16815260200190815260200160002060000154905092915050565b60008173ffffffffffffffffffffffffffffffffffffffff16319050919050565b600073ffffffffffffffffffffffffffffffffffffffff168273ffffffffffffffffffffffffffffffffffffffff161415611507576040517f08c379a00000000000000000000000000000000000000000000000000000000081526004016114fe90611d61565b60405180910390fd5b61151c8160075461173e90919063ffffffff16565b60078190555061157781600960008573ffffffffffffffffffffffffffffffffffffffff1673ffffffffffffffffffffffffffffffffffffffff1681526020019081526020016000206000015461173e90919063ffffffff16565b600960008473ffffffffffffffffffffffffffffffffffffffff1673ffffffffffffffffffffffffffffffffffffffff168152602001908152602001600020600001819055508173ffffffffffffffffffffffffffffffffffffffff16600073ffffffffffffffffffffffffffffffffffffffff167fddf252ad1be2c89b69c2b068fc378daa952ba7f163c4a11628f55a4df523b3ef8360405161161b9190611d81565b60405180910390a35050565b600080611681600960008573ffffffffffffffffffffffffffffffffffffffff1673ffffffffffffffffffffffffffffffffffffffff168152602001908152602001600020600101546003546116f490919063ffffffff16565b90506116ec6005546116de83600960008873ffffffffffffffffffffffffffffffffffffffff1673ffffffffffffffffffffffffffffffffffffffff1681526020019081526020016000206000015461179c90919063ffffffff16565b61181790919063ffffffff16565b915050919050565b600061173683836040518060400160405280601e81526020017f536166654d6174683a207375627472616374696f6e206f766572666c6f770000815250611956565b905092915050565b600080828461174d9190611de1565b905083811015611792576040517f08c379a000000000000000000000000000000000000000000000000000000000815260040161178990611d01565b60405180910390fd5b8091505092915050565b6000808314156117af5760009050611811565b600082846117bd9190611e68565b90508284826117cc9190611e37565b1461180c576040517f08c379a000000000000000000000000000000000000000000000000000000000815260040161180390611d21565b60405180910390fd5b809150505b92915050565b600061185983836040518060400160405280601a81526020017f536166654d6174683a206469766973696f6e206279207a65726f0000000000008152506119ba565b905092915050565b600073ffffffffffffffffffffffffffffffffffffffff168273ffffffffffffffffffffffffffffffffffffffff1614156118d1576040517f08c379a00000000000000000000000000000000000000000000000000000000081526004016118c890611d41565b60405180910390fd5b6118e6816007546116f490919063ffffffff16565b600781905550600073ffffffffffffffffffffffffffffffffffffffff168273ffffffffffffffffffffffffffffffffffffffff167fddf252ad1be2c89b69c2b068fc378daa952ba7f163c4a11628f55a4df523b3ef8360405161194a9190611d81565b60405180910390a35050565b600083831115829061199e576040517f08c379a00000000000000000000000000000000000000000000000000000000081526004016119959190611cbf565b60405180910390fd5b50600083856119ad9190611ec2565b9050809150509392505050565b60008083118290611a01576040517f08c379a00000000000000000000000000000000000000000000000000000000081526004016119f89190611cbf565b60405180910390fd5b5060008385611a109190611e37565b9050809150509392505050565b600081359050611a2c8161216c565b92915050565b600081359050611a4181612183565b92915050565b600081359050611a568161219a565b92915050565b600060208284031215611a6e57600080fd5b6000611a7c84828501611a1d565b91505092915050565b600060208284031215611a9757600080fd5b6000611aa584828501611a32565b91505092915050565b60008060408385031215611ac157600080fd5b6000611acf85828601611a1d565b9250506020611ae085828601611a1d565b9150509250929050565b600080600060608486031215611aff57600080fd5b6000611b0d86828701611a1d565b9350506020611b1e86828701611a1d565b9250506040611b2f86828701611a47565b9150509250925092565b60008060408385031215611b4c57600080fd5b6000611b5a85828601611a1d565b9250506020611b6b85828601611a47565b9150509250929050565b600060208284031215611b8757600080fd5b6000611b9584828501611a47565b91505092915050565b611ba781611f1a565b82525050565b6000611bb882611dc5565b611bc28185611dd0565b9350611bd2818560208601611f50565b611bdb81612042565b840191505092915050565b6000611bf3601f83611dd0565b9150611bfe82612053565b602082019050919050565b6000611c16601b83611dd0565b9150611c218261207c565b602082019050919050565b6000611c39602183611dd0565b9150611c44826120a5565b604082019050919050565b6000611c5c602183611dd0565b9150611c67826120f4565b604082019050919050565b6000611c7f601f83611dd0565b9150611c8a82612143565b602082019050919050565b611c9e81611f46565b82525050565b6000602082019050611cb96000830184611b9e565b92915050565b60006020820190508181036000830152611cd98184611bad565b905092915050565b60006020820190508181036000830152611cfa81611be6565b9050919050565b60006020820190508181036000830152611d1a81611c09565b9050919050565b60006020820190508181036000830152611d3a81611c2c565b9050919050565b60006020820190508181036000830152611d5a81611c4f565b9050919050565b60006020820190508181036000830152611d7a81611c72565b9050919050565b6000602082019050611d966000830184611c95565b92915050565b6000604082019050611db16000830185611c95565b611dbe6020830184611c95565b9392505050565b600081519050919050565b600082825260208201905092915050565b6000611dec82611f46565b9150611df783611f46565b9250827fffffffffffffffffffffffffffffffffffffffffffffffffffffffffffffffff03821115611e2c57611e2b611fb5565b5b828201905092915050565b6000611e4282611f46565b9150611e4d83611f46565b925082611e5d57611e5c611fe4565b5b828204905092915050565b6000611e7382611f46565b9150611e7e83611f46565b9250817fffffffffffffffffffffffffffffffffffffffffffffffffffffffffffffffff0483118215151615611eb757611eb6611fb5565b5b828202905092915050565b6000611ecd82611f46565b9150611ed883611f46565b925082821015611eeb57611eea611fb5565b5b828203905092915050565b6000611f0182611f26565b9050919050565b6000611f1382611f26565b9050919050565b60008115159050919050565b600073ffffffffffffffffffffffffffffffffffffffff82169050919050565b6000819050919050565b60005b83811015611f6e578082015181840152602081019050611f53565b83811115611f7d576000848401525b50505050565b60006002820490506001821680611f9b57607f821691505b60208210811415611faf57611fae612013565b5b50919050565b7f4e487b7100000000000000000000000000000000000000000000000000000000600052601160045260246000fd5b7f4e487b7100000000000000000000000000000000000000000000000000000000600052601260045260246000fd5b7f4e487b7100000000000000000000000000000000000000000000000000000000600052602260045260246000fd5b6000601f19601f8301169050919050565b7f4574686572207061737365642073686f756c64206265206e6f6e207a65726f00600082015250565b7f536166654d6174683a206164646974696f6e206f766572666c6f770000000000600082015250565b7f536166654d6174683a206d756c7469706c69636174696f6e206f766572666c6f60008201527f7700000000000000000000000000000000000000000000000000000000000000602082015250565b7f45524332303a206275726e2066726f6d20746865207a65726f2061646472657360008201527f7300000000000000000000000000000000000000000000000000000000000000602082015250565b7f45524332303a206d696e7420746f20746865207a65726f206164647265737300600082015250565b61217581611ef6565b811461218057600080fd5b50565b61218c81611f08565b811461219757600080fd5b50565b6121a381611f46565b81146121ae57600080fd5b5056fea2646970667358221220bede83c2d7000cb28c1709f005a656ec69bdc448549fcf056988dfe901844b1e64736f6c63430008040033",
  "immutableReferences": {},
  "source": "\npragma solidity 0.8.4;\n\nimport \"./IERC20.sol\";\nimport \"./IMintableToken.sol\";\nimport \"./IDividends.sol\";\n// import \"./SafeMath.sol\";\n\n\nlibrary SafeMath {\n   \n    function add(uint256 a, uint256 b) internal pure returns (uint256) {\n        uint256 c = a + b;\n        require(c >= a, \"SafeMath: addition overflow\");\n\n        return c;\n    }\n\n    function sub(uint256 a, uint256 b) internal pure returns (uint256) {\n        return sub(a, b, \"SafeMath: subtraction overflow\");\n    }\n\n\n    function sub(\n        uint256 a,\n        uint256 b,\n        string memory errorMessage\n    ) internal pure returns (uint256) {\n        require(b <= a, errorMessage);\n        uint256 c = a - b;\n\n        return c;\n    }\n\n\n    function mul(uint256 a, uint256 b) internal pure returns (uint256) {\n       \n        if (a == 0) {\n            return 0;\n        }\n\n        uint256 c = a * b;\n        require(c / a == b, \"SafeMath: multiplication overflow\");\n\n        return c;\n    }\n\n    /**\n     * @dev Returns the integer division of two unsigned integers. Reverts on\n     * division by zero. The result is rounded towards zero.\n     *\n     * Counterpart to Solidity's `/` operator. Note: this function uses a\n     * `revert` opcode (which leaves remaining gas untouched) while Solidity\n     * uses an invalid opcode to revert (consuming all remaining gas).\n     *\n     * Requirements:\n     * - The divisor cannot be zero.\n     */\n    function div(uint256 a, uint256 b) internal pure returns (uint256) {\n        return div(a, b, \"SafeMath: division by zero\");\n    }\n\n  \n    function div(\n        uint256 a,\n        uint256 b,\n        string memory errorMessage\n    ) internal pure returns (uint256) {\n        // Solidity only automatically asserts when dividing by 0\n        require(b > 0, errorMessage);\n        uint256 c = a / b;\n        // assert(a == b * c + a % b); // There is no case in which this doesn't hold\n\n        return c;\n    }\n\n  \n    function mod(uint256 a, uint256 b) internal pure returns (uint256) {\n        return mod(a, b, \"SafeMath: modulo by zero\");\n    }\n\n    function mod(\n        uint256 a,\n        uint256 b,\n        string memory errorMessage\n    ) internal pure returns (uint256) {\n        require(b != 0, errorMessage);\n        return a % b;\n    }\n}\n\ncontract Token is IERC20, IMintableToken, IDividends {\n \n  using SafeMath for uint256;\n\n  uint256 public decimals = 18;\n  string public name = \"Test token\";\n  string public symbol = \"TEST\";\n\n\n   // uint256 public totalSupply_ = 1000000;\n    uint256 totalDividendPoints = 0;\n    uint256 unclaimedDividends = 0;\n    uint256 pointMultiplier = 1000000000000000000;\n    address owner;\n    //  uint256 private _totalSupply;\n     uint256 private totalSupply_;\n    mapping (address => mapping (address => account)) internal allowed;\n    struct account{\n         uint256 balance;\n         uint256 lastDividendPoints;\n     }\n    mapping(address => account) public balances;\n\n    modifier updateDividend(address investor) {\n        uint256 owing = dividendsOwing(investor);\n        if(owing > 0) {\n            unclaimedDividends = unclaimedDividends.sub(owing);\n            balances[investor].balance = balances[investor].balance.add(owing);\n            balances[investor].lastDividendPoints = totalDividendPoints;\n            }\n        _;\n    }\n    \n \n    \n    modifier onlyOwner() {\n        require(msg.sender == owner);\n    _;\n    }\n\n    constructor() public {\n\n    }\n\n \n\n    function totalSupply() public view returns (uint256) {\n        return totalSupply_;\n    }\n\n \n  function allowance(\n    address _owner,\n    address _spender\n   )\n    public\n    view override\n    returns (uint256)\n  {\n        return (allowed[_owner][_spender]).balance;\n  }\n\n function transfer(address _to, uint256 _value) updateDividend(msg.sender) updateDividend(_to) external override returns(bool) {\n        require(msg.sender != _to);\n        require(_to != address(0));\n        require(_value <= balances[msg.sender].balance);\n        balances[msg.sender].balance = (balances[msg.sender].balance).sub(_value);\n        balances[_to].balance = (balances[_to].balance).add(_value);\n        emit Transfer(msg.sender, _to, _value);\n        return true;\n  }\n\nfunction balanceOf(address _owner) external view override returns(uint256) {\n        return balances[_owner].balance;\n  }\n\n   function approve(address _spender, uint256 _value) external override returns (bool) {\n        (allowed[msg.sender][_spender]).balance = _value;\n        emit Approval(msg.sender, _spender, _value);\n        return true;\n  }\n\n  function transferFrom(\n    address _from,\n    address _to,\n    uint256 _value\n  )\n    updateDividend(_from)\n    updateDividend(_to)\n    external\n    override\n    returns (bool)\n  {\n      require(_to != _from);\n      require(_to != address(0));\n      require(_value <= balances[_from].balance);\n      require(_value <= (allowed[_from][msg.sender]).balance);\n\n      balances[_from].balance = (balances[_from].balance).sub(_value);\n      balances[_to].balance = (balances[_to].balance).add(_value);\n      (allowed[_from][msg.sender]).balance = (allowed[_from][msg.sender]).balance.sub(_value);\n      emit Transfer(_from, _to, _value);\n      return true;\n  }\n\n  // IMintableToken\n\n  function mint() external payable override {\n        require(msg.value != 0,\"Ether passed should be non zero\");\n        _mint(msg.sender, msg.value);\n  }\n\n  function getBalance(address _addr) external view returns(uint256) {\n        return address(_addr).balance;\n    }\n\n  function _mint(address account, uint256 amount) internal {\n        require(account != address(0), \"ERC20: mint to the zero address\");\n\n        totalSupply_ = totalSupply_.add(amount);\n        balances[account].balance = balances[account].balance.add(amount);\n        emit Transfer(address(0), account, amount);\n    }\n\n  function burn(address _addr) public override{\n\n        _burn(_addr, balances[_addr].balance);\n    }\n\n    // function burn(uint256 amount) public {\n    //     _burn(msg.sender, amount);\n    // }\n   function _burn(address account, uint256 amount) internal {\n        require(account != address(0), \"ERC20: burn from the zero address\");\n        totalSupply_ = totalSupply_.sub(amount);\n        emit Transfer(account, address(0), amount);\n    }\n\n  // IDividends\n\n  function recordDividend() external payable override {\n\n     totalDividendPoints = totalDividendPoints.add((msg.value.mul(pointMultiplier)).div(totalSupply_));\n     totalSupply_ = totalSupply_.add(msg.value);\n     unclaimedDividends =  unclaimedDividends.add(msg.value);\n\n  }\n\n  function getWithdrawableDividend(address payee) external view override returns (uint256) {\n   \n        return balances[payee].lastDividendPoints;\n  }\n\n\n  function withdrawDividend(address payable dest) external override {\n       \n  }\n\nfunction dividendsOwing(address investor) internal returns(uint256) {\n        uint256 newDividendPoints = totalDividendPoints.sub(balances[investor].lastDividendPoints);\n        return (balances[investor].balance.mul(newDividendPoints)).div(pointMultiplier);\n    }\n\nfunction disburse(uint256 amount)  onlyOwner public{\n        totalDividendPoints = totalDividendPoints.add((amount.mul(pointMultiplier)).div(totalSupply_));\n        totalSupply_ = totalSupply_.add(amount);\n        unclaimedDividends =  unclaimedDividends.add(amount);\n   \n    }\n\n//Events\n   event Transfer(\n        address indexed from,\n        address indexed to,\n        uint256 value\n    );\n    \n    event Approval(\n    address indexed owner,\n    address indexed spender,\n    uint256 value\n    );\n}",
  "sourcePath": "/Users/wasim/temo/SumeruDividendContract/Sumeru/contracts/Token.sol",
  "compiler": {
    "name": "solc",
    "version": "0.8.4+commit.c7e474f2.Linux.g++"
  },
  "schemaVersion": "3.4.3",
  "updatedAt": "2022-04-12T05:19:50.161Z",
  "networkType": "ethereum",
  "devdoc": {
    "kind": "dev",
    "methods": {
      "getWithdrawableDividend(address)": {
        "returns": {
          "_0": "the withdrawable dividend."
        }
      },
      "mint()": {
        "details": "Deposit ETH and mint equal no. of tokens to the caller's balance. Throws error if no ETH is supplied."
      }
    },
    "version": 1
  },
  "userdoc": {
    "kind": "user",
    "methods": {
      "getWithdrawableDividend(address)": {
        "notice": "Get current withdrawable dividend for given payee."
      },
      "recordDividend()": {
        "notice": "Record a new dividend to be paid to all current token holders. Dividend amount equals `msg.value`. Each token holder should be assigned a percentage of dividend according  to their proportion of the token supply. Throws an error if no ETH is supplied."
      },
      "withdrawDividend(address)": {
        "notice": "Withdraw dividend assigned to caller to given destination address. The dividend ETH will be transferred to the caller and the internal dividend balance set to 0."
      }
    },
    "version": 1
  }
}