{
  "contractName": "DividendContApproachTwo",
  "abi": [
    {
      "inputs": [],
      "stateMutability": "nonpayable",
      "type": "constructor"
    },
    {
      "anonymous": false,
      "inputs": [
        {
          "indexed": true,
          "internalType": "address",
          "name": "owner",
          "type": "address"
        },
        {
          "indexed": true,
          "internalType": "address",
          "name": "spender",
          "type": "address"
        },
        {
          "indexed": false,
          "internalType": "uint256",
          "name": "value",
          "type": "uint256"
        }
      ],
      "name": "Approval",
      "type": "event"
    },
    {
      "anonymous": false,
      "inputs": [
        {
          "indexed": true,
          "internalType": "address",
          "name": "from",
          "type": "address"
        },
        {
          "indexed": true,
          "internalType": "address",
          "name": "to",
          "type": "address"
        },
        {
          "indexed": false,
          "internalType": "uint256",
          "name": "value",
          "type": "uint256"
        }
      ],
      "name": "Transfer",
      "type": "event"
    },
    {
      "inputs": [
        {
          "internalType": "address",
          "name": "",
          "type": "address"
        }
      ],
      "name": "balances",
      "outputs": [
        {
          "internalType": "uint256",
          "name": "balance",
          "type": "uint256"
        },
        {
          "internalType": "uint256",
          "name": "lastDividend",
          "type": "uint256"
        }
      ],
      "stateMutability": "view",
      "type": "function"
    },
    {
      "inputs": [],
      "name": "decimals",
      "outputs": [
        {
          "internalType": "uint256",
          "name": "",
          "type": "uint256"
        }
      ],
      "stateMutability": "view",
      "type": "function"
    },
    {
      "inputs": [],
      "name": "name",
      "outputs": [
        {
          "internalType": "string",
          "name": "",
          "type": "string"
        }
      ],
      "stateMutability": "view",
      "type": "function"
    },
    {
      "inputs": [],
      "name": "symbol",
      "outputs": [
        {
          "internalType": "string",
          "name": "",
          "type": "string"
        }
      ],
      "stateMutability": "view",
      "type": "function"
    },
    {
      "inputs": [],
      "name": "totalSupply",
      "outputs": [
        {
          "internalType": "uint256",
          "name": "",
          "type": "uint256"
        }
      ],
      "stateMutability": "view",
      "type": "function"
    },
    {
      "inputs": [
        {
          "internalType": "address",
          "name": "_owner",
          "type": "address"
        },
        {
          "internalType": "address",
          "name": "_spender",
          "type": "address"
        }
      ],
      "name": "allowance",
      "outputs": [
        {
          "internalType": "uint256",
          "name": "",
          "type": "uint256"
        }
      ],
      "stateMutability": "view",
      "type": "function"
    },
    {
      "inputs": [
        {
          "internalType": "address",
          "name": "_to",
          "type": "address"
        },
        {
          "internalType": "uint256",
          "name": "_value",
          "type": "uint256"
        }
      ],
      "name": "transfer",
      "outputs": [
        {
          "internalType": "bool",
          "name": "",
          "type": "bool"
        }
      ],
      "stateMutability": "nonpayable",
      "type": "function"
    },
    {
      "inputs": [
        {
          "internalType": "address",
          "name": "_owner",
          "type": "address"
        }
      ],
      "name": "balanceOf",
      "outputs": [
        {
          "internalType": "uint256",
          "name": "",
          "type": "uint256"
        }
      ],
      "stateMutability": "view",
      "type": "function"
    },
    {
      "inputs": [
        {
          "internalType": "address",
          "name": "_spender",
          "type": "address"
        },
        {
          "internalType": "uint256",
          "name": "_value",
          "type": "uint256"
        }
      ],
      "name": "approve",
      "outputs": [
        {
          "internalType": "bool",
          "name": "",
          "type": "bool"
        }
      ],
      "stateMutability": "nonpayable",
      "type": "function"
    },
    {
      "inputs": [
        {
          "internalType": "address",
          "name": "_from",
          "type": "address"
        },
        {
          "internalType": "address",
          "name": "_to",
          "type": "address"
        },
        {
          "internalType": "uint256",
          "name": "_value",
          "type": "uint256"
        }
      ],
      "name": "transferFrom",
      "outputs": [
        {
          "internalType": "bool",
          "name": "",
          "type": "bool"
        }
      ],
      "stateMutability": "nonpayable",
      "type": "function"
    },
    {
      "inputs": [],
      "name": "mint",
      "outputs": [],
      "stateMutability": "payable",
      "type": "function"
    },
    {
      "inputs": [
        {
          "internalType": "address",
          "name": "_addr",
          "type": "address"
        }
      ],
      "name": "getBalance",
      "outputs": [
        {
          "internalType": "uint256",
          "name": "",
          "type": "uint256"
        }
      ],
      "stateMutability": "view",
      "type": "function"
    },
    {
      "inputs": [
        {
          "internalType": "address",
          "name": "_addr",
          "type": "address"
        }
      ],
      "name": "burn",
      "outputs": [],
      "stateMutability": "nonpayable",
      "type": "function"
    },
    {
      "inputs": [],
      "name": "recordDividend",
      "outputs": [],
      "stateMutability": "payable",
      "type": "function"
    },
    {
      "inputs": [
        {
          "internalType": "address",
          "name": "payee",
          "type": "address"
        }
      ],
      "name": "getWithdrawableDividend",
      "outputs": [
        {
          "internalType": "uint256",
          "name": "",
          "type": "uint256"
        }
      ],
      "stateMutability": "view",
      "type": "function"
    },
    {
      "inputs": [
        {
          "internalType": "address payable",
          "name": "dest",
          "type": "address"
        }
      ],
      "name": "withdrawDividend",
      "outputs": [],
      "stateMutability": "nonpayable",
      "type": "function"
    },
    {
      "inputs": [
        {
          "internalType": "uint256",
          "name": "amount",
          "type": "uint256"
        }
      ],
      "name": "disburse",
      "outputs": [],
      "stateMutability": "nonpayable",
      "type": "function"
    }
  ],
  "bytecode": "0x608060405260126000556040518060400160405280600a81526020017f5465737420746f6b656e000000000000000000000000000000000000000000008152506001908051906020019062000056929190620000cf565b506040518060400160405280600481526020017f544553540000000000000000000000000000000000000000000000000000000081525060029080519060200190620000a4929190620000cf565b5060006003556000600455670de0b6b3a7640000600555348015620000c857600080fd5b50620001e4565b828054620000dd906200017f565b90600052602060002090601f0160209004810192826200010157600085556200014d565b82601f106200011c57805160ff19168380011785556200014d565b828001600101855582156200014d579182015b828111156200014c5782518255916020019190600101906200012f565b5b5090506200015c919062000160565b5090565b5b808211156200017b57600081600090555060010162000161565b5090565b600060028204905060018216806200019857607f821691505b60208210811415620001af57620001ae620001b5565b5b50919050565b7f4e487b7100000000000000000000000000000000000000000000000000000000600052602260045260246000fd5b61240080620001f46000396000f3fe60806040526004361061011b576000357c01000000000000000000000000000000000000000000000000000000009004806370a08231116100b2578063a4138b9b11610081578063a4138b9b14610327578063a9059cbb14610364578063bd77ac2c146103a1578063dd62ed3e146103ca578063f8b2cb4f146104075761011b565b806370a082311461026d57806389afcb44146102aa57806395d89b41146102d35780639c53c0ca146102fe5761011b565b806323b872dd116100ee57806323b872dd146101bd57806327e235e3146101fa578063313ce5671461023857806350ca7555146102635761011b565b806306fdde0314610120578063095ea7b31461014b5780631249c58b1461018857806318160ddd14610192575b600080fd5b34801561012c57600080fd5b50610135610444565b6040516101429190611eca565b60405180910390f35b34801561015757600080fd5b50610172600480360381019061016d9190611d0c565b6104d2565b60405161017f9190611eaf565b60405180910390f35b6101906105c7565b005b34801561019e57600080fd5b506101a7610617565b6040516101b49190611f8c565b60405180910390f35b3480156101c957600080fd5b506101e460048036038101906101df9190611cbd565b610621565b6040516101f19190611eaf565b60405180910390f35b34801561020657600080fd5b50610221600480360381019061021c9190611c2f565b610c5e565b60405161022f929190611fa7565b60405180910390f35b34801561024457600080fd5b5061024d610c82565b60405161025a9190611f8c565b60405180910390f35b61026b610c88565b005b34801561027957600080fd5b50610294600480360381019061028f9190611c2f565b610d03565b6040516102a19190611f8c565b60405180910390f35b3480156102b657600080fd5b506102d160048036038101906102cc9190611c2f565b610d4f565b005b3480156102df57600080fd5b506102e8610d9e565b6040516102f59190611eca565b60405180910390f35b34801561030a57600080fd5b5061032560048036038101906103209190611c58565b610e2c565b005b34801561033357600080fd5b5061034e60048036038101906103499190611c2f565b610f81565b60405161035b9190611f8c565b60405180910390f35b34801561037057600080fd5b5061038b60048036038101906103869190611d0c565b61104e565b6040516103989190611eaf565b60405180910390f35b3480156103ad57600080fd5b506103c860048036038101906103c39190611d48565b6114e9565b005b3480156103d657600080fd5b506103f160048036038101906103ec9190611c81565b6115bf565b6040516103fe9190611f8c565b60405180910390f35b34801561041357600080fd5b5061042e60048036038101906104299190611c2f565b611649565b60405161043b9190611f8c565b60405180910390f35b6001805461045190612199565b80601f016020809104026020016040519081016040528092919081815260200182805461047d90612199565b80156104ca5780601f1061049f576101008083540402835291602001916104ca565b820191906000526020600020905b8154815290600101906020018083116104ad57829003601f168201915b505050505081565b600081600860003373ffffffffffffffffffffffffffffffffffffffff1673ffffffffffffffffffffffffffffffffffffffff16815260200190815260200160002060008573ffffffffffffffffffffffffffffffffffffffff1673ffffffffffffffffffffffffffffffffffffffff168152602001908152602001600020600001819055508273ffffffffffffffffffffffffffffffffffffffff163373ffffffffffffffffffffffffffffffffffffffff167f8c5be1e5ebec7d5bd14f71427d1e84f3dd0314c0f7b2291e5b200ac8c7c3b925846040516105b59190611f8c565b60405180910390a36001905092915050565b600034141561060b576040517f08c379a000000000000000000000000000000000000000000000000000000000815260040161060290611eec565b60405180910390fd5b610615333461166a565b565b6000600754905090565b600083600061062f826117fa565b9050600081111561073a5761064f816004546118c790919063ffffffff16565b6004819055506106aa81600960008573ffffffffffffffffffffffffffffffffffffffff1673ffffffffffffffffffffffffffffffffffffffff1681526020019081526020016000206000015461191190919063ffffffff16565b600960008473ffffffffffffffffffffffffffffffffffffffff1673ffffffffffffffffffffffffffffffffffffffff16815260200190815260200160002060000181905550600354600960008473ffffffffffffffffffffffffffffffffffffffff1673ffffffffffffffffffffffffffffffffffffffff168152602001908152602001600020600101819055505b846000610746826117fa565b9050600081111561085157610766816004546118c790919063ffffffff16565b6004819055506107c181600960008573ffffffffffffffffffffffffffffffffffffffff1673ffffffffffffffffffffffffffffffffffffffff1681526020019081526020016000206000015461191190919063ffffffff16565b600960008473ffffffffffffffffffffffffffffffffffffffff1673ffffffffffffffffffffffffffffffffffffffff16815260200190815260200160002060000181905550600354600960008473ffffffffffffffffffffffffffffffffffffffff1673ffffffffffffffffffffffffffffffffffffffff168152602001908152602001600020600101819055505b8773ffffffffffffffffffffffffffffffffffffffff168773ffffffffffffffffffffffffffffffffffffffff16141561088a57600080fd5b600073ffffffffffffffffffffffffffffffffffffffff168773ffffffffffffffffffffffffffffffffffffffff1614156108c457600080fd5b600960008973ffffffffffffffffffffffffffffffffffffffff1673ffffffffffffffffffffffffffffffffffffffff1681526020019081526020016000206000015486111561091357600080fd5b600860008973ffffffffffffffffffffffffffffffffffffffff1673ffffffffffffffffffffffffffffffffffffffff16815260200190815260200160002060003373ffffffffffffffffffffffffffffffffffffffff1673ffffffffffffffffffffffffffffffffffffffff1681526020019081526020016000206000015486111561099f57600080fd5b6109f486600960008b73ffffffffffffffffffffffffffffffffffffffff1673ffffffffffffffffffffffffffffffffffffffff168152602001908152602001600020600001546118c790919063ffffffff16565b600960008a73ffffffffffffffffffffffffffffffffffffffff1673ffffffffffffffffffffffffffffffffffffffff16815260200190815260200160002060000181905550610a8f86600960008a73ffffffffffffffffffffffffffffffffffffffff1673ffffffffffffffffffffffffffffffffffffffff1681526020019081526020016000206000015461191190919063ffffffff16565b600960008973ffffffffffffffffffffffffffffffffffffffff1673ffffffffffffffffffffffffffffffffffffffff16815260200190815260200160002060000181905550610b6786600860008b73ffffffffffffffffffffffffffffffffffffffff1673ffffffffffffffffffffffffffffffffffffffff16815260200190815260200160002060003373ffffffffffffffffffffffffffffffffffffffff1673ffffffffffffffffffffffffffffffffffffffff168152602001908152602001600020600001546118c790919063ffffffff16565b600860008a73ffffffffffffffffffffffffffffffffffffffff1673ffffffffffffffffffffffffffffffffffffffff16815260200190815260200160002060003373ffffffffffffffffffffffffffffffffffffffff1673ffffffffffffffffffffffffffffffffffffffff168152602001908152602001600020600001819055508673ffffffffffffffffffffffffffffffffffffffff168873ffffffffffffffffffffffffffffffffffffffff167fddf252ad1be2c89b69c2b068fc378daa952ba7f163c4a11628f55a4df523b3ef88604051610c479190611f8c565b60405180910390a360019450505050509392505050565b60096020528060005260406000206000915090508060000154908060010154905082565b60005481565b610cc5610cb4600754610ca66005543461196f90919063ffffffff16565b6119ea90919063ffffffff16565b60035461191190919063ffffffff16565b600381905550610ce03460075461191190919063ffffffff16565b600781905550610cfb3460045461191190919063ffffffff16565b600481905550565b6000600960008373ffffffffffffffffffffffffffffffffffffffff1673ffffffffffffffffffffffffffffffffffffffff168152602001908152602001600020600001549050919050565b610d9b81600960008473ffffffffffffffffffffffffffffffffffffffff1673ffffffffffffffffffffffffffffffffffffffff16815260200190815260200160002060000154611a34565b50565b60028054610dab90612199565b80601f0160208091040260200160405190810160405280929190818152602001828054610dd790612199565b8015610e245780601f10610df957610100808354040283529160200191610e24565b820191906000526020600020905b815481529060010190602001808311610e0757829003601f168201915b505050505081565b6000610e85600960008473ffffffffffffffffffffffffffffffffffffffff1673ffffffffffffffffffffffffffffffffffffffff168152602001908152602001600020600101546003546118c790919063ffffffff16565b90506000610ef2600554610ee484600960008873ffffffffffffffffffffffffffffffffffffffff1673ffffffffffffffffffffffffffffffffffffffff1681526020019081526020016000206000015461196f90919063ffffffff16565b6119ea90919063ffffffff16565b9050610f09816004546118c790919063ffffffff16565b60048190555060008373ffffffffffffffffffffffffffffffffffffffff1682604051610f3590611e9a565b60006040518083038185875af1925050503d8060008114610f72576040519150601f19603f3d011682016040523d82523d6000602084013e610f77565b606091505b5050905050505050565b600080610fdb600960008573ffffffffffffffffffffffffffffffffffffffff1673ffffffffffffffffffffffffffffffffffffffff168152602001908152602001600020600101546003546118c790919063ffffffff16565b905061104660055461103883600960008873ffffffffffffffffffffffffffffffffffffffff1673ffffffffffffffffffffffffffffffffffffffff1681526020019081526020016000206000015461196f90919063ffffffff16565b6119ea90919063ffffffff16565b915050919050565b600033600061105c826117fa565b905060008111156111675761107c816004546118c790919063ffffffff16565b6004819055506110d781600960008573ffffffffffffffffffffffffffffffffffffffff1673ffffffffffffffffffffffffffffffffffffffff1681526020019081526020016000206000015461191190919063ffffffff16565b600960008473ffffffffffffffffffffffffffffffffffffffff1673ffffffffffffffffffffffffffffffffffffffff16815260200190815260200160002060000181905550600354600960008473ffffffffffffffffffffffffffffffffffffffff1673ffffffffffffffffffffffffffffffffffffffff168152602001908152602001600020600101819055505b846000611173826117fa565b9050600081111561127e57611193816004546118c790919063ffffffff16565b6004819055506111ee81600960008573ffffffffffffffffffffffffffffffffffffffff1673ffffffffffffffffffffffffffffffffffffffff1681526020019081526020016000206000015461191190919063ffffffff16565b600960008473ffffffffffffffffffffffffffffffffffffffff1673ffffffffffffffffffffffffffffffffffffffff16815260200190815260200160002060000181905550600354600960008473ffffffffffffffffffffffffffffffffffffffff1673ffffffffffffffffffffffffffffffffffffffff168152602001908152602001600020600101819055505b8673ffffffffffffffffffffffffffffffffffffffff163373ffffffffffffffffffffffffffffffffffffffff1614156112b757600080fd5b600073ffffffffffffffffffffffffffffffffffffffff168773ffffffffffffffffffffffffffffffffffffffff1614156112f157600080fd5b600960003373ffffffffffffffffffffffffffffffffffffffff1673ffffffffffffffffffffffffffffffffffffffff1681526020019081526020016000206000015486111561134057600080fd5b61139586600960003373ffffffffffffffffffffffffffffffffffffffff1673ffffffffffffffffffffffffffffffffffffffff168152602001908152602001600020600001546118c790919063ffffffff16565b600960003373ffffffffffffffffffffffffffffffffffffffff1673ffffffffffffffffffffffffffffffffffffffff1681526020019081526020016000206000018190555061143086600960008a73ffffffffffffffffffffffffffffffffffffffff1673ffffffffffffffffffffffffffffffffffffffff1681526020019081526020016000206000015461191190919063ffffffff16565b600960008973ffffffffffffffffffffffffffffffffffffffff1673ffffffffffffffffffffffffffffffffffffffff168152602001908152602001600020600001819055508673ffffffffffffffffffffffffffffffffffffffff163373ffffffffffffffffffffffffffffffffffffffff167fddf252ad1be2c89b69c2b068fc378daa952ba7f163c4a11628f55a4df523b3ef886040516114d39190611f8c565b60405180910390a3600194505050505092915050565b600660009054906101000a900473ffffffffffffffffffffffffffffffffffffffff1673ffffffffffffffffffffffffffffffffffffffff163373ffffffffffffffffffffffffffffffffffffffff161461154357600080fd5b61158061156f6007546115616005548561196f90919063ffffffff16565b6119ea90919063ffffffff16565b60035461191190919063ffffffff16565b60038190555061159b8160075461191190919063ffffffff16565b6007819055506115b68160045461191190919063ffffffff16565b60048190555050565b6000600860008473ffffffffffffffffffffffffffffffffffffffff1673ffffffffffffffffffffffffffffffffffffffff16815260200190815260200160002060008373ffffffffffffffffffffffffffffffffffffffff1673ffffffffffffffffffffffffffffffffffffffff16815260200190815260200160002060000154905092915050565b60008173ffffffffffffffffffffffffffffffffffffffff16319050919050565b600073ffffffffffffffffffffffffffffffffffffffff168273ffffffffffffffffffffffffffffffffffffffff1614156116da576040517f08c379a00000000000000000000000000000000000000000000000000000000081526004016116d190611f6c565b60405180910390fd5b6116ef8160075461191190919063ffffffff16565b60078190555061174a81600960008573ffffffffffffffffffffffffffffffffffffffff1673ffffffffffffffffffffffffffffffffffffffff1681526020019081526020016000206000015461191190919063ffffffff16565b600960008473ffffffffffffffffffffffffffffffffffffffff1673ffffffffffffffffffffffffffffffffffffffff168152602001908152602001600020600001819055508173ffffffffffffffffffffffffffffffffffffffff16600073ffffffffffffffffffffffffffffffffffffffff167fddf252ad1be2c89b69c2b068fc378daa952ba7f163c4a11628f55a4df523b3ef836040516117ee9190611f8c565b60405180910390a35050565b600080611854600960008573ffffffffffffffffffffffffffffffffffffffff1673ffffffffffffffffffffffffffffffffffffffff168152602001908152602001600020600101546003546118c790919063ffffffff16565b90506118bf6005546118b183600960008873ffffffffffffffffffffffffffffffffffffffff1673ffffffffffffffffffffffffffffffffffffffff1681526020019081526020016000206000015461196f90919063ffffffff16565b6119ea90919063ffffffff16565b915050919050565b600061190983836040518060400160405280601e81526020017f536166654d6174683a207375627472616374696f6e206f766572666c6f770000815250611b29565b905092915050565b60008082846119209190611ff7565b905083811015611965576040517f08c379a000000000000000000000000000000000000000000000000000000000815260040161195c90611f0c565b60405180910390fd5b8091505092915050565b60008083141561198257600090506119e4565b60008284611990919061207e565b905082848261199f919061204d565b146119df576040517f08c379a00000000000000000000000000000000000000000000000000000000081526004016119d690611f2c565b60405180910390fd5b809150505b92915050565b6000611a2c83836040518060400160405280601a81526020017f536166654d6174683a206469766973696f6e206279207a65726f000000000000815250611b8d565b905092915050565b600073ffffffffffffffffffffffffffffffffffffffff168273ffffffffffffffffffffffffffffffffffffffff161415611aa4576040517f08c379a0000000000000000000000000000000000000000000000000000000008152600401611a9b90611f4c565b60405180910390fd5b611ab9816007546118c790919063ffffffff16565b600781905550600073ffffffffffffffffffffffffffffffffffffffff168273ffffffffffffffffffffffffffffffffffffffff167fddf252ad1be2c89b69c2b068fc378daa952ba7f163c4a11628f55a4df523b3ef83604051611b1d9190611f8c565b60405180910390a35050565b6000838311158290611b71576040517f08c379a0000000000000000000000000000000000000000000000000000000008152600401611b689190611eca565b60405180910390fd5b5060008385611b8091906120d8565b9050809150509392505050565b60008083118290611bd4576040517f08c379a0000000000000000000000000000000000000000000000000000000008152600401611bcb9190611eca565b60405180910390fd5b5060008385611be3919061204d565b9050809150509392505050565b600081359050611bff81612385565b92915050565b600081359050611c148161239c565b92915050565b600081359050611c29816123b3565b92915050565b600060208284031215611c4157600080fd5b6000611c4f84828501611bf0565b91505092915050565b600060208284031215611c6a57600080fd5b6000611c7884828501611c05565b91505092915050565b60008060408385031215611c9457600080fd5b6000611ca285828601611bf0565b9250506020611cb385828601611bf0565b9150509250929050565b600080600060608486031215611cd257600080fd5b6000611ce086828701611bf0565b9350506020611cf186828701611bf0565b9250506040611d0286828701611c1a565b9150509250925092565b60008060408385031215611d1f57600080fd5b6000611d2d85828601611bf0565b9250506020611d3e85828601611c1a565b9150509250929050565b600060208284031215611d5a57600080fd5b6000611d6884828501611c1a565b91505092915050565b611d7a81612130565b82525050565b6000611d8b82611fd0565b611d958185611fe6565b9350611da5818560208601612166565b611dae81612258565b840191505092915050565b6000611dc6601f83611fe6565b9150611dd182612269565b602082019050919050565b6000611de9601b83611fe6565b9150611df482612292565b602082019050919050565b6000611e0c602183611fe6565b9150611e17826122bb565b604082019050919050565b6000611e2f602183611fe6565b9150611e3a8261230a565b604082019050919050565b6000611e52600083611fdb565b9150611e5d82612359565b600082019050919050565b6000611e75601f83611fe6565b9150611e808261235c565b602082019050919050565b611e948161215c565b82525050565b6000611ea582611e45565b9150819050919050565b6000602082019050611ec46000830184611d71565b92915050565b60006020820190508181036000830152611ee48184611d80565b905092915050565b60006020820190508181036000830152611f0581611db9565b9050919050565b60006020820190508181036000830152611f2581611ddc565b9050919050565b60006020820190508181036000830152611f4581611dff565b9050919050565b60006020820190508181036000830152611f6581611e22565b9050919050565b60006020820190508181036000830152611f8581611e68565b9050919050565b6000602082019050611fa16000830184611e8b565b92915050565b6000604082019050611fbc6000830185611e8b565b611fc96020830184611e8b565b9392505050565b600081519050919050565b600081905092915050565b600082825260208201905092915050565b60006120028261215c565b915061200d8361215c565b9250827fffffffffffffffffffffffffffffffffffffffffffffffffffffffffffffffff03821115612042576120416121cb565b5b828201905092915050565b60006120588261215c565b91506120638361215c565b925082612073576120726121fa565b5b828204905092915050565b60006120898261215c565b91506120948361215c565b9250817fffffffffffffffffffffffffffffffffffffffffffffffffffffffffffffffff04831182151516156120cd576120cc6121cb565b5b828202905092915050565b60006120e38261215c565b91506120ee8361215c565b925082821015612101576121006121cb565b5b828203905092915050565b60006121178261213c565b9050919050565b60006121298261213c565b9050919050565b60008115159050919050565b600073ffffffffffffffffffffffffffffffffffffffff82169050919050565b6000819050919050565b60005b83811015612184578082015181840152602081019050612169565b83811115612193576000848401525b50505050565b600060028204905060018216806121b157607f821691505b602082108114156121c5576121c4612229565b5b50919050565b7f4e487b7100000000000000000000000000000000000000000000000000000000600052601160045260246000fd5b7f4e487b7100000000000000000000000000000000000000000000000000000000600052601260045260246000fd5b7f4e487b7100000000000000000000000000000000000000000000000000000000600052602260045260246000fd5b6000601f19601f8301169050919050565b7f4574686572207061737365642073686f756c64206265206e6f6e207a65726f00600082015250565b7f536166654d6174683a206164646974696f6e206f766572666c6f770000000000600082015250565b7f536166654d6174683a206d756c7469706c69636174696f6e206f766572666c6f60008201527f7700000000000000000000000000000000000000000000000000000000000000602082015250565b7f45524332303a206275726e2066726f6d20746865207a65726f2061646472657360008201527f7300000000000000000000000000000000000000000000000000000000000000602082015250565b50565b7f45524332303a206d696e7420746f20746865207a65726f206164647265737300600082015250565b61238e8161210c565b811461239957600080fd5b50565b6123a58161211e565b81146123b057600080fd5b50565b6123bc8161215c565b81146123c757600080fd5b5056fea26469706673582212201553d128c3d7d32afec3ede1b6dc2895be941085c8394ce60f73f50dbad0bcd864736f6c63430008040033",
  "immutableReferences": {},
  "source": "\npragma solidity 0.8.4;\n\nimport \"./IERC20.sol\";\nimport \"./IMintableToken.sol\";\nimport \"./IDividends.sol\";\n// import \"./SafeMath.sol\";\n\n\nlibrary SafeMath {\n   \n    function add(uint256 a, uint256 b) internal pure returns (uint256) {\n        uint256 c = a + b;\n        require(c >= a, \"SafeMath: addition overflow\");\n\n        return c;\n    }\n\n    function sub(uint256 a, uint256 b) internal pure returns (uint256) {\n        return sub(a, b, \"SafeMath: subtraction overflow\");\n    }\n\n\n    function sub(\n        uint256 a,\n        uint256 b,\n        string memory errorMessage\n    ) internal pure returns (uint256) {\n        require(b <= a, errorMessage);\n        uint256 c = a - b;\n\n        return c;\n    }\n\n\n    function mul(uint256 a, uint256 b) internal pure returns (uint256) {\n       \n        if (a == 0) {\n            return 0;\n        }\n\n        uint256 c = a * b;\n        require(c / a == b, \"SafeMath: multiplication overflow\");\n\n        return c;\n    }\n\n    /**\n     * @dev Returns the integer division of two unsigned integers. Reverts on\n     * division by zero. The result is rounded towards zero.\n     *\n     * Counterpart to Solidity's `/` operator. Note: this function uses a\n     * `revert` opcode (which leaves remaining gas untouched) while Solidity\n     * uses an invalid opcode to revert (consuming all remaining gas).\n     *\n     * Requirements:\n     * - The divisor cannot be zero.\n     */\n    function div(uint256 a, uint256 b) internal pure returns (uint256) {\n        return div(a, b, \"SafeMath: division by zero\");\n    }\n\n  \n    function div(\n        uint256 a,\n        uint256 b,\n        string memory errorMessage\n    ) internal pure returns (uint256) {\n        // Solidity only automatically asserts when dividing by 0\n        require(b > 0, errorMessage);\n        uint256 c = a / b;\n        // assert(a == b * c + a % b); // There is no case in which this doesn't hold\n\n        return c;\n    }\n\n  \n    function mod(uint256 a, uint256 b) internal pure returns (uint256) {\n        return mod(a, b, \"SafeMath: modulo by zero\");\n    }\n\n    function mod(\n        uint256 a,\n        uint256 b,\n        string memory errorMessage\n    ) internal pure returns (uint256) {\n        require(b != 0, errorMessage);\n        return a % b;\n    }\n}\n\ncontract DividendContApproachTwo is IERC20, IMintableToken, IDividends {\n \n    using SafeMath for uint256;\n\n    uint256 public decimals = 18;\n    string public name = \"Test token\";\n    string public symbol = \"TEST\";\n\n    uint256 totalDividendPoints = 0;\n    uint256 unclaimedDividends = 0;\n    uint256 pointMultiplier = 1000000000000000000;\n    address owner;\n \n     uint256 private totalSupply_;\n    mapping (address => mapping (address => account)) internal allowed;\n    struct account{\n         uint256 balance;\n         uint256 lastDividend;\n     }\n    mapping(address => account) public balances;\n\n    modifier updateDividend(address investor) {\n        uint256 owing = dividendsOwing(investor);\n        if(owing > 0) {\n            unclaimedDividends = unclaimedDividends.sub(owing);\n            balances[investor].balance = balances[investor].balance.add(owing);\n            balances[investor].lastDividend = totalDividendPoints;\n            }\n        _;\n    }\n    \n \n    \n    modifier onlyOwner() {\n        require(msg.sender == owner);\n    _;\n    }\n\n    constructor() public {\n\n    }\n\n \n\n    function totalSupply() public view returns (uint256) {\n        return totalSupply_;\n    }\n\n \n  function allowance(\n    address _owner,\n    address _spender\n   )\n    public\n    view override\n    returns (uint256)\n  {\n        return (allowed[_owner][_spender]).balance;\n  }\n\n function transfer(address _to, uint256 _value) updateDividend(msg.sender) updateDividend(_to) external override returns(bool) {\n        require(msg.sender != _to);\n        require(_to != address(0));\n        require(_value <= balances[msg.sender].balance);\n        balances[msg.sender].balance = (balances[msg.sender].balance).sub(_value);\n        balances[_to].balance = (balances[_to].balance).add(_value);\n        emit Transfer(msg.sender, _to, _value);\n        return true;\n  }\n\nfunction balanceOf(address _owner) external view override returns(uint256) {\n        return balances[_owner].balance;\n  }\n\n   function approve(address _spender, uint256 _value) external override returns (bool) {\n        (allowed[msg.sender][_spender]).balance = _value;\n        emit Approval(msg.sender, _spender, _value);\n        return true;\n  }\n\n  function transferFrom(\n    address _from,\n    address _to,\n    uint256 _value\n  )\n    updateDividend(_from)\n    updateDividend(_to)\n    external\n    override\n    returns (bool)\n  {\n      require(_to != _from);\n      require(_to != address(0));\n      require(_value <= balances[_from].balance);\n      require(_value <= (allowed[_from][msg.sender]).balance);\n\n      balances[_from].balance = (balances[_from].balance).sub(_value);\n      balances[_to].balance = (balances[_to].balance).add(_value);\n      (allowed[_from][msg.sender]).balance = (allowed[_from][msg.sender]).balance.sub(_value);\n      emit Transfer(_from, _to, _value);\n      return true;\n  }\n\n  // IMintableToken\n\n  function mint() external payable override {\n        require(msg.value != 0,\"Ether passed should be non zero\");\n        _mint(msg.sender, msg.value);\n  }\n\n  function getBalance(address _addr) external view returns(uint256) {\n        return address(_addr).balance;\n    }\n\n  function _mint(address account, uint256 amount) internal {\n        require(account != address(0), \"ERC20: mint to the zero address\");\n\n        totalSupply_ = totalSupply_.add(amount);\n        balances[account].balance = balances[account].balance.add(amount);\n        emit Transfer(address(0), account, amount);\n    }\n\n  function burn(address _addr) public override{\n\n        _burn(_addr, balances[_addr].balance);\n    }\n\n    // function burn(uint256 amount) public {\n    //     _burn(msg.sender, amount);\n    // }\n   function _burn(address account, uint256 amount) internal {\n        require(account != address(0), \"ERC20: burn from the zero address\");\n        totalSupply_ = totalSupply_.sub(amount);\n        emit Transfer(account, address(0), amount);\n    }\n\n  // IDividends\n\n  function recordDividend() external payable override {\n\n     totalDividendPoints = totalDividendPoints.add((msg.value.mul(pointMultiplier)).div(totalSupply_));\n     totalSupply_ = totalSupply_.add(msg.value);\n     unclaimedDividends =  unclaimedDividends.add(msg.value);\n\n  }\n\n  function getWithdrawableDividend(address payee) external view override returns (uint256) {\n      \n        uint256 newDividendPoints = totalDividendPoints.sub(balances[payee].lastDividend);\n        return (balances[payee].balance.mul(newDividendPoints)).div(pointMultiplier);\n  }\n\n  function withdrawDividend(address payable dest) external override {\n       uint256 newDividendPoints = totalDividendPoints.sub(balances[dest].lastDividend);\n       uint tobeTransferred  = (balances[dest].balance.mul(newDividendPoints)).div(pointMultiplier);\n       unclaimedDividends= unclaimedDividends.sub(tobeTransferred);\n       (bool success, ) = payable(dest).call{value: tobeTransferred}(\"\"); \n  }\n\nfunction dividendsOwing(address investor) internal returns(uint256) {\n        uint256 newDividendPoints = totalDividendPoints.sub(balances[investor].lastDividend);\n        return (balances[investor].balance.mul(newDividendPoints)).div(pointMultiplier);\n    }\n\nfunction disburse(uint256 amount)  onlyOwner public{\n        totalDividendPoints = totalDividendPoints.add((amount.mul(pointMultiplier)).div(totalSupply_));\n        totalSupply_ = totalSupply_.add(amount);\n        unclaimedDividends =  unclaimedDividends.add(amount);\n   \n    }\n\n//Events\n   event Transfer(\n        address indexed from,\n        address indexed to,\n        uint256 value\n    );\n    \n    event Approval(\n    address indexed owner,\n    address indexed spender,\n    uint256 value\n    );\n}",
  "sourcePath": "/Users/wasim/temo/SumeruDividendContract/Sumeru/contracts/DividendContApproachTwo.sol",
  "compiler": {
    "name": "solc",
    "version": "0.8.4+commit.c7e474f2.Linux.g++"
  },
  "schemaVersion": "3.4.3",
  "updatedAt": "2022-04-12T07:10:18.005Z",
  "devdoc": {
    "kind": "dev",
    "methods": {
      "getWithdrawableDividend(address)": {
        "returns": {
          "_0": "the withdrawable dividend."
        }
      },
      "mint()": {
        "details": "Deposit ETH and mint equal no. of tokens to the caller's balance. Throws error if no ETH is supplied."
      }
    },
    "version": 1
  },
  "userdoc": {
    "kind": "user",
    "methods": {
      "getWithdrawableDividend(address)": {
        "notice": "Get current withdrawable dividend for given payee."
      },
      "recordDividend()": {
        "notice": "Record a new dividend to be paid to all current token holders. Dividend amount equals `msg.value`. Each token holder should be assigned a percentage of dividend according  to their proportion of the token supply. Throws an error if no ETH is supplied."
      },
      "withdrawDividend(address)": {
        "notice": "Withdraw dividend assigned to caller to given destination address. The dividend ETH will be transferred to the caller and the internal dividend balance set to 0."
      }
    },
    "version": 1
  }
}