{
  "contractName": "DividendContApproachTwo",
  "abi": [
    {
      "inputs": [],
      "stateMutability": "nonpayable",
      "type": "constructor"
    },
    {
      "anonymous": false,
      "inputs": [
        {
          "indexed": true,
          "internalType": "address",
          "name": "owner",
          "type": "address"
        },
        {
          "indexed": true,
          "internalType": "address",
          "name": "spender",
          "type": "address"
        },
        {
          "indexed": false,
          "internalType": "uint256",
          "name": "value",
          "type": "uint256"
        }
      ],
      "name": "Approval",
      "type": "event"
    },
    {
      "anonymous": false,
      "inputs": [
        {
          "indexed": true,
          "internalType": "address",
          "name": "from",
          "type": "address"
        },
        {
          "indexed": true,
          "internalType": "address",
          "name": "to",
          "type": "address"
        },
        {
          "indexed": false,
          "internalType": "uint256",
          "name": "value",
          "type": "uint256"
        }
      ],
      "name": "Transfer",
      "type": "event"
    },
    {
      "inputs": [
        {
          "internalType": "address",
          "name": "",
          "type": "address"
        }
      ],
      "name": "balances",
      "outputs": [
        {
          "internalType": "uint256",
          "name": "balance",
          "type": "uint256"
        },
        {
          "internalType": "uint256",
          "name": "lastDividend",
          "type": "uint256"
        }
      ],
      "stateMutability": "view",
      "type": "function",
      "constant": true
    },
    {
      "inputs": [],
      "name": "decimals",
      "outputs": [
        {
          "internalType": "uint256",
          "name": "",
          "type": "uint256"
        }
      ],
      "stateMutability": "view",
      "type": "function",
      "constant": true
    },
    {
      "inputs": [],
      "name": "name",
      "outputs": [
        {
          "internalType": "string",
          "name": "",
          "type": "string"
        }
      ],
      "stateMutability": "view",
      "type": "function",
      "constant": true
    },
    {
      "inputs": [],
      "name": "symbol",
      "outputs": [
        {
          "internalType": "string",
          "name": "",
          "type": "string"
        }
      ],
      "stateMutability": "view",
      "type": "function",
      "constant": true
    },
    {
      "inputs": [],
      "name": "totalSupply",
      "outputs": [
        {
          "internalType": "uint256",
          "name": "",
          "type": "uint256"
        }
      ],
      "stateMutability": "view",
      "type": "function",
      "constant": true
    },
    {
      "inputs": [
        {
          "internalType": "address",
          "name": "_owner",
          "type": "address"
        },
        {
          "internalType": "address",
          "name": "_spender",
          "type": "address"
        }
      ],
      "name": "allowance",
      "outputs": [
        {
          "internalType": "uint256",
          "name": "",
          "type": "uint256"
        }
      ],
      "stateMutability": "view",
      "type": "function",
      "constant": true
    },
    {
      "inputs": [
        {
          "internalType": "address",
          "name": "_to",
          "type": "address"
        },
        {
          "internalType": "uint256",
          "name": "_value",
          "type": "uint256"
        }
      ],
      "name": "transfer",
      "outputs": [
        {
          "internalType": "bool",
          "name": "",
          "type": "bool"
        }
      ],
      "stateMutability": "nonpayable",
      "type": "function"
    },
    {
      "inputs": [
        {
          "internalType": "address",
          "name": "_owner",
          "type": "address"
        }
      ],
      "name": "balanceOf",
      "outputs": [
        {
          "internalType": "uint256",
          "name": "",
          "type": "uint256"
        }
      ],
      "stateMutability": "view",
      "type": "function",
      "constant": true
    },
    {
      "inputs": [
        {
          "internalType": "address",
          "name": "_spender",
          "type": "address"
        },
        {
          "internalType": "uint256",
          "name": "_value",
          "type": "uint256"
        }
      ],
      "name": "approve",
      "outputs": [
        {
          "internalType": "bool",
          "name": "",
          "type": "bool"
        }
      ],
      "stateMutability": "nonpayable",
      "type": "function"
    },
    {
      "inputs": [
        {
          "internalType": "address",
          "name": "_from",
          "type": "address"
        },
        {
          "internalType": "address",
          "name": "_to",
          "type": "address"
        },
        {
          "internalType": "uint256",
          "name": "_value",
          "type": "uint256"
        }
      ],
      "name": "transferFrom",
      "outputs": [
        {
          "internalType": "bool",
          "name": "",
          "type": "bool"
        }
      ],
      "stateMutability": "nonpayable",
      "type": "function"
    },
    {
      "inputs": [],
      "name": "mint",
      "outputs": [],
      "stateMutability": "payable",
      "type": "function",
      "payable": true
    },
    {
      "inputs": [
        {
          "internalType": "address",
          "name": "_addr",
          "type": "address"
        }
      ],
      "name": "getBalance",
      "outputs": [
        {
          "internalType": "uint256",
          "name": "",
          "type": "uint256"
        }
      ],
      "stateMutability": "view",
      "type": "function",
      "constant": true
    },
    {
      "inputs": [
        {
          "internalType": "address",
          "name": "_addr",
          "type": "address"
        }
      ],
      "name": "burn",
      "outputs": [],
      "stateMutability": "nonpayable",
      "type": "function"
    },
    {
      "inputs": [],
      "name": "recordDividend",
      "outputs": [],
      "stateMutability": "payable",
      "type": "function",
      "payable": true
    },
    {
      "inputs": [
        {
          "internalType": "address",
          "name": "payee",
          "type": "address"
        }
      ],
      "name": "getWithdrawableDividend",
      "outputs": [
        {
          "internalType": "uint256",
          "name": "",
          "type": "uint256"
        }
      ],
      "stateMutability": "view",
      "type": "function",
      "constant": true
    },
    {
      "inputs": [
        {
          "internalType": "address payable",
          "name": "dest",
          "type": "address"
        }
      ],
      "name": "withdrawDividend",
      "outputs": [],
      "stateMutability": "nonpayable",
      "type": "function"
    }
  ],
  "bytecode": "0x608060405260126000556040518060400160405280600a81526020017f5465737420746f6b656e0000000000000000000000000000000000000000000081525060019080519060200190620000569291906200011a565b506040518060400160405280600481526020017f544553540000000000000000000000000000000000000000000000000000000081525060029080519060200190620000a49291906200011a565b5060006003556000600455670de0b6b3a7640000600555348015620000c857600080fd5b5033600660006101000a81548173ffffffffffffffffffffffffffffffffffffffff021916908373ffffffffffffffffffffffffffffffffffffffff160217905550620186a06007819055506200022f565b8280546200012890620001ca565b90600052602060002090601f0160209004810192826200014c576000855562000198565b82601f106200016757805160ff191683800117855562000198565b8280016001018555821562000198579182015b82811115620001975782518255916020019190600101906200017a565b5b509050620001a79190620001ab565b5090565b5b80821115620001c6576000816000905550600101620001ac565b5090565b60006002820490506001821680620001e357607f821691505b60208210811415620001fa57620001f962000200565b5b50919050565b7f4e487b7100000000000000000000000000000000000000000000000000000000600052602260045260246000fd5b6123c2806200023f6000396000f3fe608060405260043610610110576000357c01000000000000000000000000000000000000000000000000000000009004806370a08231116100a7578063a4138b9b11610076578063a4138b9b1461031c578063a9059cbb14610359578063dd62ed3e14610396578063f8b2cb4f146103d357610110565b806370a082311461026257806389afcb441461029f57806395d89b41146102c85780639c53c0ca146102f357610110565b806323b872dd116100e357806323b872dd146101b257806327e235e3146101ef578063313ce5671461022d57806350ca75551461025857610110565b806306fdde0314610115578063095ea7b3146101405780631249c58b1461017d57806318160ddd14610187575b600080fd5b34801561012157600080fd5b5061012a610410565b6040516101379190611e8c565b60405180910390f35b34801561014c57600080fd5b5061016760048036038101906101629190611cf7565b61049e565b6040516101749190611e71565b60405180910390f35b610185610593565b005b34801561019357600080fd5b5061019c6105e3565b6040516101a99190611f4e565b60405180910390f35b3480156101be57600080fd5b506101d960048036038101906101d49190611ca8565b6105ed565b6040516101e69190611e71565b60405180910390f35b3480156101fb57600080fd5b5061021660048036038101906102119190611c1a565b610c2a565b604051610224929190611f69565b60405180910390f35b34801561023957600080fd5b50610242610c4e565b60405161024f9190611f4e565b60405180910390f35b610260610c54565b005b34801561026e57600080fd5b5061028960048036038101906102849190611c1a565b610d29565b6040516102969190611f4e565b60405180910390f35b3480156102ab57600080fd5b506102c660048036038101906102c19190611c1a565b610d75565b005b3480156102d457600080fd5b506102dd610dc4565b6040516102ea9190611e8c565b60405180910390f35b3480156102ff57600080fd5b5061031a60048036038101906103159190611c43565b610e52565b005b34801561032857600080fd5b50610343600480360381019061033e9190611c1a565b610fa7565b6040516103509190611f4e565b60405180910390f35b34801561036557600080fd5b50610380600480360381019061037b9190611cf7565b611074565b60405161038d9190611e71565b60405180910390f35b3480156103a257600080fd5b506103bd60048036038101906103b89190611c6c565b61150f565b6040516103ca9190611f4e565b60405180910390f35b3480156103df57600080fd5b506103fa60048036038101906103f59190611c1a565b611599565b6040516104079190611f4e565b60405180910390f35b6001805461041d9061215b565b80601f01602080910402602001604051908101604052809291908181526020018280546104499061215b565b80156104965780601f1061046b57610100808354040283529160200191610496565b820191906000526020600020905b81548152906001019060200180831161047957829003601f168201915b505050505081565b600081600860003373ffffffffffffffffffffffffffffffffffffffff1673ffffffffffffffffffffffffffffffffffffffff16815260200190815260200160002060008573ffffffffffffffffffffffffffffffffffffffff1673ffffffffffffffffffffffffffffffffffffffff168152602001908152602001600020600001819055508273ffffffffffffffffffffffffffffffffffffffff163373ffffffffffffffffffffffffffffffffffffffff167f8c5be1e5ebec7d5bd14f71427d1e84f3dd0314c0f7b2291e5b200ac8c7c3b925846040516105819190611f4e565b60405180910390a36001905092915050565b60003414156105d7576040517f08c379a00000000000000000000000000000000000000000000000000000000081526004016105ce90611eae565b60405180910390fd5b6105e133346115ba565b565b6000600754905090565b60008360006105fb8261174a565b905060008111156107065761061b8160045461181790919063ffffffff16565b60048190555061067681600960008573ffffffffffffffffffffffffffffffffffffffff1673ffffffffffffffffffffffffffffffffffffffff1681526020019081526020016000206000015461186190919063ffffffff16565b600960008473ffffffffffffffffffffffffffffffffffffffff1673ffffffffffffffffffffffffffffffffffffffff16815260200190815260200160002060000181905550600354600960008473ffffffffffffffffffffffffffffffffffffffff1673ffffffffffffffffffffffffffffffffffffffff168152602001908152602001600020600101819055505b8460006107128261174a565b9050600081111561081d576107328160045461181790919063ffffffff16565b60048190555061078d81600960008573ffffffffffffffffffffffffffffffffffffffff1673ffffffffffffffffffffffffffffffffffffffff1681526020019081526020016000206000015461186190919063ffffffff16565b600960008473ffffffffffffffffffffffffffffffffffffffff1673ffffffffffffffffffffffffffffffffffffffff16815260200190815260200160002060000181905550600354600960008473ffffffffffffffffffffffffffffffffffffffff1673ffffffffffffffffffffffffffffffffffffffff168152602001908152602001600020600101819055505b8773ffffffffffffffffffffffffffffffffffffffff168773ffffffffffffffffffffffffffffffffffffffff16141561085657600080fd5b600073ffffffffffffffffffffffffffffffffffffffff168773ffffffffffffffffffffffffffffffffffffffff16141561089057600080fd5b600960008973ffffffffffffffffffffffffffffffffffffffff1673ffffffffffffffffffffffffffffffffffffffff168152602001908152602001600020600001548611156108df57600080fd5b600860008973ffffffffffffffffffffffffffffffffffffffff1673ffffffffffffffffffffffffffffffffffffffff16815260200190815260200160002060003373ffffffffffffffffffffffffffffffffffffffff1673ffffffffffffffffffffffffffffffffffffffff1681526020019081526020016000206000015486111561096b57600080fd5b6109c086600960008b73ffffffffffffffffffffffffffffffffffffffff1673ffffffffffffffffffffffffffffffffffffffff1681526020019081526020016000206000015461181790919063ffffffff16565b600960008a73ffffffffffffffffffffffffffffffffffffffff1673ffffffffffffffffffffffffffffffffffffffff16815260200190815260200160002060000181905550610a5b86600960008a73ffffffffffffffffffffffffffffffffffffffff1673ffffffffffffffffffffffffffffffffffffffff1681526020019081526020016000206000015461186190919063ffffffff16565b600960008973ffffffffffffffffffffffffffffffffffffffff1673ffffffffffffffffffffffffffffffffffffffff16815260200190815260200160002060000181905550610b3386600860008b73ffffffffffffffffffffffffffffffffffffffff1673ffffffffffffffffffffffffffffffffffffffff16815260200190815260200160002060003373ffffffffffffffffffffffffffffffffffffffff1673ffffffffffffffffffffffffffffffffffffffff1681526020019081526020016000206000015461181790919063ffffffff16565b600860008a73ffffffffffffffffffffffffffffffffffffffff1673ffffffffffffffffffffffffffffffffffffffff16815260200190815260200160002060003373ffffffffffffffffffffffffffffffffffffffff1673ffffffffffffffffffffffffffffffffffffffff168152602001908152602001600020600001819055508673ffffffffffffffffffffffffffffffffffffffff168873ffffffffffffffffffffffffffffffffffffffff167fddf252ad1be2c89b69c2b068fc378daa952ba7f163c4a11628f55a4df523b3ef88604051610c139190611f4e565b60405180910390a360019450505050509392505050565b60096020528060005260406000206000915090508060000154908060010154905082565b60005481565b600660009054906101000a900473ffffffffffffffffffffffffffffffffffffffff1673ffffffffffffffffffffffffffffffffffffffff163373ffffffffffffffffffffffffffffffffffffffff1614610cae57600080fd5b610ceb610cda600754610ccc600554346118bf90919063ffffffff16565b61193a90919063ffffffff16565b60035461186190919063ffffffff16565b600381905550610d063460075461186190919063ffffffff16565b600781905550610d213460045461186190919063ffffffff16565b600481905550565b6000600960008373ffffffffffffffffffffffffffffffffffffffff1673ffffffffffffffffffffffffffffffffffffffff168152602001908152602001600020600001549050919050565b610dc181600960008473ffffffffffffffffffffffffffffffffffffffff1673ffffffffffffffffffffffffffffffffffffffff16815260200190815260200160002060000154611984565b50565b60028054610dd19061215b565b80601f0160208091040260200160405190810160405280929190818152602001828054610dfd9061215b565b8015610e4a5780601f10610e1f57610100808354040283529160200191610e4a565b820191906000526020600020905b815481529060010190602001808311610e2d57829003601f168201915b505050505081565b6000610eab600960008473ffffffffffffffffffffffffffffffffffffffff1673ffffffffffffffffffffffffffffffffffffffff1681526020019081526020016000206001015460035461181790919063ffffffff16565b90506000610f18600554610f0a84600960008873ffffffffffffffffffffffffffffffffffffffff1673ffffffffffffffffffffffffffffffffffffffff168152602001908152602001600020600001546118bf90919063ffffffff16565b61193a90919063ffffffff16565b9050610f2f8160045461181790919063ffffffff16565b60048190555060008373ffffffffffffffffffffffffffffffffffffffff1682604051610f5b90611e5c565b60006040518083038185875af1925050503d8060008114610f98576040519150601f19603f3d011682016040523d82523d6000602084013e610f9d565b606091505b5050905050505050565b600080611001600960008573ffffffffffffffffffffffffffffffffffffffff1673ffffffffffffffffffffffffffffffffffffffff1681526020019081526020016000206001015460035461181790919063ffffffff16565b905061106c60055461105e83600960008873ffffffffffffffffffffffffffffffffffffffff1673ffffffffffffffffffffffffffffffffffffffff168152602001908152602001600020600001546118bf90919063ffffffff16565b61193a90919063ffffffff16565b915050919050565b60003360006110828261174a565b9050600081111561118d576110a28160045461181790919063ffffffff16565b6004819055506110fd81600960008573ffffffffffffffffffffffffffffffffffffffff1673ffffffffffffffffffffffffffffffffffffffff1681526020019081526020016000206000015461186190919063ffffffff16565b600960008473ffffffffffffffffffffffffffffffffffffffff1673ffffffffffffffffffffffffffffffffffffffff16815260200190815260200160002060000181905550600354600960008473ffffffffffffffffffffffffffffffffffffffff1673ffffffffffffffffffffffffffffffffffffffff168152602001908152602001600020600101819055505b8460006111998261174a565b905060008111156112a4576111b98160045461181790919063ffffffff16565b60048190555061121481600960008573ffffffffffffffffffffffffffffffffffffffff1673ffffffffffffffffffffffffffffffffffffffff1681526020019081526020016000206000015461186190919063ffffffff16565b600960008473ffffffffffffffffffffffffffffffffffffffff1673ffffffffffffffffffffffffffffffffffffffff16815260200190815260200160002060000181905550600354600960008473ffffffffffffffffffffffffffffffffffffffff1673ffffffffffffffffffffffffffffffffffffffff168152602001908152602001600020600101819055505b8673ffffffffffffffffffffffffffffffffffffffff163373ffffffffffffffffffffffffffffffffffffffff1614156112dd57600080fd5b600073ffffffffffffffffffffffffffffffffffffffff168773ffffffffffffffffffffffffffffffffffffffff16141561131757600080fd5b600960003373ffffffffffffffffffffffffffffffffffffffff1673ffffffffffffffffffffffffffffffffffffffff1681526020019081526020016000206000015486111561136657600080fd5b6113bb86600960003373ffffffffffffffffffffffffffffffffffffffff1673ffffffffffffffffffffffffffffffffffffffff1681526020019081526020016000206000015461181790919063ffffffff16565b600960003373ffffffffffffffffffffffffffffffffffffffff1673ffffffffffffffffffffffffffffffffffffffff1681526020019081526020016000206000018190555061145686600960008a73ffffffffffffffffffffffffffffffffffffffff1673ffffffffffffffffffffffffffffffffffffffff1681526020019081526020016000206000015461186190919063ffffffff16565b600960008973ffffffffffffffffffffffffffffffffffffffff1673ffffffffffffffffffffffffffffffffffffffff168152602001908152602001600020600001819055508673ffffffffffffffffffffffffffffffffffffffff163373ffffffffffffffffffffffffffffffffffffffff167fddf252ad1be2c89b69c2b068fc378daa952ba7f163c4a11628f55a4df523b3ef886040516114f99190611f4e565b60405180910390a3600194505050505092915050565b6000600860008473ffffffffffffffffffffffffffffffffffffffff1673ffffffffffffffffffffffffffffffffffffffff16815260200190815260200160002060008373ffffffffffffffffffffffffffffffffffffffff1673ffffffffffffffffffffffffffffffffffffffff16815260200190815260200160002060000154905092915050565b60008173ffffffffffffffffffffffffffffffffffffffff16319050919050565b600073ffffffffffffffffffffffffffffffffffffffff168273ffffffffffffffffffffffffffffffffffffffff16141561162a576040517f08c379a000000000000000000000000000000000000000000000000000000000815260040161162190611f2e565b60405180910390fd5b61163f8160075461186190919063ffffffff16565b60078190555061169a81600960008573ffffffffffffffffffffffffffffffffffffffff1673ffffffffffffffffffffffffffffffffffffffff1681526020019081526020016000206000015461186190919063ffffffff16565b600960008473ffffffffffffffffffffffffffffffffffffffff1673ffffffffffffffffffffffffffffffffffffffff168152602001908152602001600020600001819055508173ffffffffffffffffffffffffffffffffffffffff16600073ffffffffffffffffffffffffffffffffffffffff167fddf252ad1be2c89b69c2b068fc378daa952ba7f163c4a11628f55a4df523b3ef8360405161173e9190611f4e565b60405180910390a35050565b6000806117a4600960008573ffffffffffffffffffffffffffffffffffffffff1673ffffffffffffffffffffffffffffffffffffffff1681526020019081526020016000206001015460035461181790919063ffffffff16565b905061180f60055461180183600960008873ffffffffffffffffffffffffffffffffffffffff1673ffffffffffffffffffffffffffffffffffffffff168152602001908152602001600020600001546118bf90919063ffffffff16565b61193a90919063ffffffff16565b915050919050565b600061185983836040518060400160405280601e81526020017f536166654d6174683a207375627472616374696f6e206f766572666c6f770000815250611b14565b905092915050565b60008082846118709190611fb9565b9050838110156118b5576040517f08c379a00000000000000000000000000000000000000000000000000000000081526004016118ac90611ece565b60405180910390fd5b8091505092915050565b6000808314156118d25760009050611934565b600082846118e09190612040565b90508284826118ef919061200f565b1461192f576040517f08c379a000000000000000000000000000000000000000000000000000000000815260040161192690611eee565b60405180910390fd5b809150505b92915050565b600061197c83836040518060400160405280601a81526020017f536166654d6174683a206469766973696f6e206279207a65726f000000000000815250611b78565b905092915050565b600073ffffffffffffffffffffffffffffffffffffffff168273ffffffffffffffffffffffffffffffffffffffff1614156119f4576040517f08c379a00000000000000000000000000000000000000000000000000000000081526004016119eb90611f0e565b60405180910390fd5b611a098160075461181790919063ffffffff16565b600781905550611a6481600960008573ffffffffffffffffffffffffffffffffffffffff1673ffffffffffffffffffffffffffffffffffffffff1681526020019081526020016000206000015461181790919063ffffffff16565b600960008473ffffffffffffffffffffffffffffffffffffffff1673ffffffffffffffffffffffffffffffffffffffff16815260200190815260200160002060000181905550600073ffffffffffffffffffffffffffffffffffffffff168273ffffffffffffffffffffffffffffffffffffffff167fddf252ad1be2c89b69c2b068fc378daa952ba7f163c4a11628f55a4df523b3ef83604051611b089190611f4e565b60405180910390a35050565b6000838311158290611b5c576040517f08c379a0000000000000000000000000000000000000000000000000000000008152600401611b539190611e8c565b60405180910390fd5b5060008385611b6b919061209a565b9050809150509392505050565b60008083118290611bbf576040517f08c379a0000000000000000000000000000000000000000000000000000000008152600401611bb69190611e8c565b60405180910390fd5b5060008385611bce919061200f565b9050809150509392505050565b600081359050611bea81612347565b92915050565b600081359050611bff8161235e565b92915050565b600081359050611c1481612375565b92915050565b600060208284031215611c2c57600080fd5b6000611c3a84828501611bdb565b91505092915050565b600060208284031215611c5557600080fd5b6000611c6384828501611bf0565b91505092915050565b60008060408385031215611c7f57600080fd5b6000611c8d85828601611bdb565b9250506020611c9e85828601611bdb565b9150509250929050565b600080600060608486031215611cbd57600080fd5b6000611ccb86828701611bdb565b9350506020611cdc86828701611bdb565b9250506040611ced86828701611c05565b9150509250925092565b60008060408385031215611d0a57600080fd5b6000611d1885828601611bdb565b9250506020611d2985828601611c05565b9150509250929050565b611d3c816120f2565b82525050565b6000611d4d82611f92565b611d578185611fa8565b9350611d67818560208601612128565b611d708161221a565b840191505092915050565b6000611d88601f83611fa8565b9150611d938261222b565b602082019050919050565b6000611dab601b83611fa8565b9150611db682612254565b602082019050919050565b6000611dce602183611fa8565b9150611dd98261227d565b604082019050919050565b6000611df1602183611fa8565b9150611dfc826122cc565b604082019050919050565b6000611e14600083611f9d565b9150611e1f8261231b565b600082019050919050565b6000611e37601f83611fa8565b9150611e428261231e565b602082019050919050565b611e568161211e565b82525050565b6000611e6782611e07565b9150819050919050565b6000602082019050611e866000830184611d33565b92915050565b60006020820190508181036000830152611ea68184611d42565b905092915050565b60006020820190508181036000830152611ec781611d7b565b9050919050565b60006020820190508181036000830152611ee781611d9e565b9050919050565b60006020820190508181036000830152611f0781611dc1565b9050919050565b60006020820190508181036000830152611f2781611de4565b9050919050565b60006020820190508181036000830152611f4781611e2a565b9050919050565b6000602082019050611f636000830184611e4d565b92915050565b6000604082019050611f7e6000830185611e4d565b611f8b6020830184611e4d565b9392505050565b600081519050919050565b600081905092915050565b600082825260208201905092915050565b6000611fc48261211e565b9150611fcf8361211e565b9250827fffffffffffffffffffffffffffffffffffffffffffffffffffffffffffffffff038211156120045761200361218d565b5b828201905092915050565b600061201a8261211e565b91506120258361211e565b925082612035576120346121bc565b5b828204905092915050565b600061204b8261211e565b91506120568361211e565b9250817fffffffffffffffffffffffffffffffffffffffffffffffffffffffffffffffff048311821515161561208f5761208e61218d565b5b828202905092915050565b60006120a58261211e565b91506120b08361211e565b9250828210156120c3576120c261218d565b5b828203905092915050565b60006120d9826120fe565b9050919050565b60006120eb826120fe565b9050919050565b60008115159050919050565b600073ffffffffffffffffffffffffffffffffffffffff82169050919050565b6000819050919050565b60005b8381101561214657808201518184015260208101905061212b565b83811115612155576000848401525b50505050565b6000600282049050600182168061217357607f821691505b60208210811415612187576121866121eb565b5b50919050565b7f4e487b7100000000000000000000000000000000000000000000000000000000600052601160045260246000fd5b7f4e487b7100000000000000000000000000000000000000000000000000000000600052601260045260246000fd5b7f4e487b7100000000000000000000000000000000000000000000000000000000600052602260045260246000fd5b6000601f19601f8301169050919050565b7f4574686572207061737365642073686f756c64206265206e6f6e207a65726f00600082015250565b7f536166654d6174683a206164646974696f6e206f766572666c6f770000000000600082015250565b7f536166654d6174683a206d756c7469706c69636174696f6e206f766572666c6f60008201527f7700000000000000000000000000000000000000000000000000000000000000602082015250565b7f45524332303a206275726e2066726f6d20746865207a65726f2061646472657360008201527f7300000000000000000000000000000000000000000000000000000000000000602082015250565b50565b7f45524332303a206d696e7420746f20746865207a65726f206164647265737300600082015250565b612350816120ce565b811461235b57600080fd5b50565b612367816120e0565b811461237257600080fd5b50565b61237e8161211e565b811461238957600080fd5b5056fea264697066735822122007dbeaad75ff641e701b43227f24060bfe9ad1a109999a5ac1a0760334170b4c64736f6c63430008040033",
  "immutableReferences": {},
  "source": "\npragma solidity 0.8.4;\n\nimport \"./IERC20.sol\";\nimport \"./IMintableToken.sol\";\nimport \"./IDividends.sol\";\n// import \"./SafeMath.sol\";\n\n\nlibrary SafeMath {\n   \n    function add(uint256 a, uint256 b) internal pure returns (uint256) {\n        uint256 c = a + b;\n        require(c >= a, \"SafeMath: addition overflow\");\n\n        return c;\n    }\n\n    function sub(uint256 a, uint256 b) internal pure returns (uint256) {\n        return sub(a, b, \"SafeMath: subtraction overflow\");\n    }\n\n\n    function sub(\n        uint256 a,\n        uint256 b,\n        string memory errorMessage\n    ) internal pure returns (uint256) {\n        require(b <= a, errorMessage);\n        uint256 c = a - b;\n\n        return c;\n    }\n\n\n    function mul(uint256 a, uint256 b) internal pure returns (uint256) {\n       \n        if (a == 0) {\n            return 0;\n        }\n\n        uint256 c = a * b;\n        require(c / a == b, \"SafeMath: multiplication overflow\");\n\n        return c;\n    }\n\n    /**\n     * @dev Returns the integer division of two unsigned integers. Reverts on\n     * division by zero. The result is rounded towards zero.\n     *\n     * Counterpart to Solidity's `/` operator. Note: this function uses a\n     * `revert` opcode (which leaves remaining gas untouched) while Solidity\n     * uses an invalid opcode to revert (consuming all remaining gas).\n     *\n     * Requirements:\n     * - The divisor cannot be zero.\n     */\n    function div(uint256 a, uint256 b) internal pure returns (uint256) {\n        return div(a, b, \"SafeMath: division by zero\");\n    }\n\n  \n    function div(\n        uint256 a,\n        uint256 b,\n        string memory errorMessage\n    ) internal pure returns (uint256) {\n        // Solidity only automatically asserts when dividing by 0\n        require(b > 0, errorMessage);\n        uint256 c = a / b;\n        // assert(a == b * c + a % b); // There is no case in which this doesn't hold\n\n        return c;\n    }\n\n  \n    function mod(uint256 a, uint256 b) internal pure returns (uint256) {\n        return mod(a, b, \"SafeMath: modulo by zero\");\n    }\n\n    function mod(\n        uint256 a,\n        uint256 b,\n        string memory errorMessage\n    ) internal pure returns (uint256) {\n        require(b != 0, errorMessage);\n        return a % b;\n    }\n}\n\ncontract DividendContApproachTwo is IERC20, IMintableToken, IDividends {\n \n    using SafeMath for uint256;\n\n    uint256 public decimals = 18;\n    string public name = \"Test token\";\n    string public symbol = \"TEST\";\n\n    uint256 totalDividendPoints = 0;\n    uint256 unclaimedDividends = 0;\n    uint256 pointMultiplier = 1000000000000000000;\n    address owner;\n \n     uint256 private totalSupply_;\n    mapping (address => mapping (address => account)) internal allowed;\n    struct account{\n         uint256 balance;\n         uint256 lastDividend;\n     }\n    mapping(address => account) public balances;\n\n    modifier updateDividend(address investor) {\n        uint256 owing = dividendsOwing(investor);\n        if(owing > 0) {\n            unclaimedDividends = unclaimedDividends.sub(owing);\n            balances[investor].balance = balances[investor].balance.add(owing);\n            balances[investor].lastDividend = totalDividendPoints;\n            }\n        _;\n    }\n    \n \n    \n    modifier onlyOwner() {\n        require(msg.sender == owner);\n        \n    _;\n    }\n\n    constructor() public {  \n        owner = msg.sender;\n        totalSupply_ = 100000;\n    }\n\n \n\n    function totalSupply() public view returns (uint256) {\n        return totalSupply_;\n    }\n\n \n  function allowance(\n    address _owner,\n    address _spender\n   )\n    public\n    view override\n    returns (uint256)\n  {\n        return (allowed[_owner][_spender]).balance;\n  }\n\n function transfer(address _to, uint256 _value) updateDividend(msg.sender) updateDividend(_to) external override returns(bool) {\n        require(msg.sender != _to);\n        require(_to != address(0));\n        require(_value <= balances[msg.sender].balance);\n        balances[msg.sender].balance = (balances[msg.sender].balance).sub(_value);\n        balances[_to].balance = (balances[_to].balance).add(_value);\n        emit Transfer(msg.sender, _to, _value);\n        return true;\n  }\n\nfunction balanceOf(address _owner) external view override returns(uint256) {\n        return balances[_owner].balance;\n  }\n\n   function approve(address _spender, uint256 _value) external override returns (bool) {\n        (allowed[msg.sender][_spender]).balance = _value;\n        emit Approval(msg.sender, _spender, _value);\n        return true;\n  }\n\n  function transferFrom(\n    address _from,\n    address _to,\n    uint256 _value\n  )\n    updateDividend(_from)\n    updateDividend(_to)\n    external\n    override\n    returns (bool)\n  {\n      require(_to != _from);\n      require(_to != address(0));\n      require(_value <= balances[_from].balance);\n      require(_value <= (allowed[_from][msg.sender]).balance);\n\n      balances[_from].balance = (balances[_from].balance).sub(_value);\n      balances[_to].balance = (balances[_to].balance).add(_value);\n      (allowed[_from][msg.sender]).balance = (allowed[_from][msg.sender]).balance.sub(_value);\n      emit Transfer(_from, _to, _value);\n      return true;\n  }\n\n  // IMintableToken\n\n  function mint() external payable override {\n        require(msg.value != 0,\"Ether passed should be non zero\");\n        _mint(msg.sender, msg.value);\n  }\n\n  function getBalance(address _addr) external view returns(uint256) {\n        return address(_addr).balance;\n    }\n\n  function _mint(address account, uint256 amount) internal {\n        require(account != address(0), \"ERC20: mint to the zero address\");\n\n        totalSupply_ = totalSupply_.add(amount);\n        balances[account].balance = balances[account].balance.add(amount);\n        emit Transfer(address(0), account, amount);\n    }\n\n  function burn(address _addr) public override{\n\n        _burn(_addr, balances[_addr].balance);\n    }\n\n   \n   function _burn(address account, uint256 amount) internal {\n        require(account != address(0), \"ERC20: burn from the zero address\");\n        totalSupply_ = totalSupply_.sub(amount);\n        balances[account].balance = balances[account].balance.sub(amount);\n        emit Transfer(account, address(0), amount);\n    }\n\n  // IDividends\n\n  function recordDividend() external onlyOwner payable override {\n\n     totalDividendPoints = totalDividendPoints.add((msg.value.mul(pointMultiplier)).div(totalSupply_));\n     totalSupply_ = totalSupply_.add(msg.value);\n     unclaimedDividends =  unclaimedDividends.add(msg.value);\n\n  }\n\n  function getWithdrawableDividend(address payee) external view override returns (uint256) {\n      \n        uint256 newDividendPoints = totalDividendPoints.sub(balances[payee].lastDividend);\n        return (balances[payee].balance.mul(newDividendPoints)).div(pointMultiplier);\n  }\n\n  function withdrawDividend(address payable dest) external override {\n       uint256 newDividendPoints = totalDividendPoints.sub(balances[dest].lastDividend);\n       uint tobeTransferred  = (balances[dest].balance.mul(newDividendPoints)).div(pointMultiplier);\n       unclaimedDividends= unclaimedDividends.sub(tobeTransferred);\n       (bool success, ) = payable(dest).call{value: tobeTransferred}(\"\"); \n  }\n\nfunction dividendsOwing(address investor) internal returns(uint256) {\n        uint256 newDividendPoints = totalDividendPoints.sub(balances[investor].lastDividend);\n        return (balances[investor].balance.mul(newDividendPoints)).div(pointMultiplier);\n    }\n\n// function disburse(uint256 amount)  onlyOwner public{\n//         totalDividendPoints = totalDividendPoints.add((amount.mul(pointMultiplier)).div(totalSupply_));\n//         totalSupply_ = totalSupply_.add(amount);\n//         unclaimedDividends =  unclaimedDividends.add(amount);\n   \n//     }\n\n//Events\n   event Transfer(\n        address indexed from,\n        address indexed to,\n        uint256 value\n    );\n    \n    event Approval(\n    address indexed owner,\n    address indexed spender,\n    uint256 value\n    );\n}",
  "sourcePath": "/Users/wasim/temo/SumeruDividendContract/Sumeru/contracts/DividendContApproachTwo.sol",
  "compiler": {
    "name": "solc",
    "version": "0.8.4+commit.c7e474f2.Linux.g++"
  },
  "schemaVersion": "3.4.3",
  "updatedAt": "2022-04-12T14:42:35.653Z",
  "networkType": "ethereum",
  "devdoc": {
    "kind": "dev",
    "methods": {
      "getWithdrawableDividend(address)": {
        "returns": {
          "_0": "the withdrawable dividend."
        }
      },
      "mint()": {
        "details": "Deposit ETH and mint equal no. of tokens to the caller's balance. Throws error if no ETH is supplied."
      }
    },
    "version": 1
  },
  "userdoc": {
    "kind": "user",
    "methods": {
      "getWithdrawableDividend(address)": {
        "notice": "Get current withdrawable dividend for given payee."
      },
      "recordDividend()": {
        "notice": "Record a new dividend to be paid to all current token holders. Dividend amount equals `msg.value`. Each token holder should be assigned a percentage of dividend according  to their proportion of the token supply. Throws an error if no ETH is supplied."
      },
      "withdrawDividend(address)": {
        "notice": "Withdraw dividend assigned to caller to given destination address. The dividend ETH will be transferred to the caller and the internal dividend balance set to 0."
      }
    },
    "version": 1
  }
}