{
  "contractName": "DividendContApproachOne",
  "abi": [
    {
      "inputs": [],
      "stateMutability": "nonpayable",
      "type": "constructor"
    },
    {
      "anonymous": false,
      "inputs": [
        {
          "indexed": true,
          "internalType": "address",
          "name": "owner",
          "type": "address"
        },
        {
          "indexed": true,
          "internalType": "address",
          "name": "spender",
          "type": "address"
        },
        {
          "indexed": false,
          "internalType": "uint256",
          "name": "value",
          "type": "uint256"
        }
      ],
      "name": "Approval",
      "type": "event"
    },
    {
      "anonymous": false,
      "inputs": [
        {
          "indexed": true,
          "internalType": "address",
          "name": "from",
          "type": "address"
        },
        {
          "indexed": true,
          "internalType": "address",
          "name": "to",
          "type": "address"
        },
        {
          "indexed": false,
          "internalType": "uint256",
          "name": "value",
          "type": "uint256"
        }
      ],
      "name": "Transfer",
      "type": "event"
    },
    {
      "inputs": [],
      "name": "decimals",
      "outputs": [
        {
          "internalType": "uint256",
          "name": "",
          "type": "uint256"
        }
      ],
      "stateMutability": "view",
      "type": "function",
      "constant": true
    },
    {
      "inputs": [],
      "name": "dividendPerToken",
      "outputs": [
        {
          "internalType": "uint256",
          "name": "",
          "type": "uint256"
        }
      ],
      "stateMutability": "view",
      "type": "function",
      "constant": true
    },
    {
      "inputs": [],
      "name": "name",
      "outputs": [
        {
          "internalType": "string",
          "name": "",
          "type": "string"
        }
      ],
      "stateMutability": "view",
      "type": "function",
      "constant": true
    },
    {
      "inputs": [],
      "name": "symbol",
      "outputs": [
        {
          "internalType": "string",
          "name": "",
          "type": "string"
        }
      ],
      "stateMutability": "view",
      "type": "function",
      "constant": true
    },
    {
      "inputs": [
        {
          "internalType": "address",
          "name": "_to",
          "type": "address"
        },
        {
          "internalType": "uint256",
          "name": "_value",
          "type": "uint256"
        }
      ],
      "name": "transfer",
      "outputs": [
        {
          "internalType": "bool",
          "name": "",
          "type": "bool"
        }
      ],
      "stateMutability": "nonpayable",
      "type": "function"
    },
    {
      "inputs": [
        {
          "internalType": "address",
          "name": "_spender",
          "type": "address"
        },
        {
          "internalType": "uint256",
          "name": "_value",
          "type": "uint256"
        }
      ],
      "name": "approve",
      "outputs": [
        {
          "internalType": "bool",
          "name": "",
          "type": "bool"
        }
      ],
      "stateMutability": "nonpayable",
      "type": "function"
    },
    {
      "inputs": [
        {
          "internalType": "address",
          "name": "_from",
          "type": "address"
        },
        {
          "internalType": "address",
          "name": "_to",
          "type": "address"
        },
        {
          "internalType": "uint256",
          "name": "_value",
          "type": "uint256"
        }
      ],
      "name": "transferFrom",
      "outputs": [
        {
          "internalType": "bool",
          "name": "",
          "type": "bool"
        }
      ],
      "stateMutability": "nonpayable",
      "type": "function"
    },
    {
      "inputs": [
        {
          "internalType": "address",
          "name": "addr",
          "type": "address"
        }
      ],
      "name": "getUserDividendPerToken",
      "outputs": [
        {
          "internalType": "uint256",
          "name": "",
          "type": "uint256"
        }
      ],
      "stateMutability": "view",
      "type": "function",
      "constant": true
    },
    {
      "inputs": [
        {
          "internalType": "address",
          "name": "addr",
          "type": "address"
        }
      ],
      "name": "getAmt",
      "outputs": [
        {
          "internalType": "uint256",
          "name": "",
          "type": "uint256"
        }
      ],
      "stateMutability": "view",
      "type": "function",
      "constant": true
    },
    {
      "inputs": [],
      "name": "totalSupply",
      "outputs": [
        {
          "internalType": "uint256",
          "name": "",
          "type": "uint256"
        }
      ],
      "stateMutability": "view",
      "type": "function",
      "constant": true
    },
    {
      "inputs": [
        {
          "internalType": "address",
          "name": "_owner",
          "type": "address"
        },
        {
          "internalType": "address",
          "name": "_spender",
          "type": "address"
        }
      ],
      "name": "allowance",
      "outputs": [
        {
          "internalType": "uint256",
          "name": "",
          "type": "uint256"
        }
      ],
      "stateMutability": "view",
      "type": "function",
      "constant": true
    },
    {
      "inputs": [
        {
          "internalType": "address",
          "name": "_owner",
          "type": "address"
        }
      ],
      "name": "balanceOf",
      "outputs": [
        {
          "internalType": "uint256",
          "name": "",
          "type": "uint256"
        }
      ],
      "stateMutability": "view",
      "type": "function",
      "constant": true
    },
    {
      "inputs": [
        {
          "internalType": "address",
          "name": "_addr",
          "type": "address"
        }
      ],
      "name": "getBalance",
      "outputs": [
        {
          "internalType": "uint256",
          "name": "",
          "type": "uint256"
        }
      ],
      "stateMutability": "view",
      "type": "function",
      "constant": true
    },
    {
      "inputs": [],
      "name": "mint",
      "outputs": [],
      "stateMutability": "payable",
      "type": "function",
      "payable": true
    },
    {
      "inputs": [
        {
          "internalType": "address",
          "name": "_addr",
          "type": "address"
        }
      ],
      "name": "burn",
      "outputs": [],
      "stateMutability": "nonpayable",
      "type": "function"
    },
    {
      "inputs": [],
      "name": "recordDividend",
      "outputs": [],
      "stateMutability": "payable",
      "type": "function",
      "payable": true
    },
    {
      "inputs": [
        {
          "internalType": "address",
          "name": "payee",
          "type": "address"
        }
      ],
      "name": "getWithdrawableDividend",
      "outputs": [
        {
          "internalType": "uint256",
          "name": "",
          "type": "uint256"
        }
      ],
      "stateMutability": "view",
      "type": "function",
      "constant": true
    },
    {
      "inputs": [
        {
          "internalType": "address payable",
          "name": "payee",
          "type": "address"
        }
      ],
      "name": "withdrawDividend",
      "outputs": [],
      "stateMutability": "nonpayable",
      "type": "function"
    }
  ],
  "bytecode": "0x608060405260126000556040518060400160405280600a81526020017f5465737420746f6b656e00000000000000000000000000000000000000000000815250600190805190602001906200005692919062000110565b506040518060400160405280600481526020017f544553540000000000000000000000000000000000000000000000000000000081525060029080519060200190620000a492919062000110565b50670de0b6b3a7640000600355348015620000be57600080fd5b50620186a060058190555033600460006101000a81548173ffffffffffffffffffffffffffffffffffffffff021916908373ffffffffffffffffffffffffffffffffffffffff16021790555062000225565b8280546200011e90620001c0565b90600052602060002090601f0160209004810192826200014257600085556200018e565b82601f106200015d57805160ff19168380011785556200018e565b828001600101855582156200018e579182015b828111156200018d57825182559160200191906001019062000170565b5b5090506200019d9190620001a1565b5090565b5b80821115620001bc576000816000905550600101620001a2565b5090565b60006002820490506001821680620001d957607f821691505b60208210811415620001f057620001ef620001f6565b5b50919050565b7f4e487b7100000000000000000000000000000000000000000000000000000000600052602260045260246000fd5b6127fa80620002356000396000f3fe608060405260043610610126576000357c01000000000000000000000000000000000000000000000000000000009004806377ec0feb116100b2578063a2505f9c11610081578063a2505f9c1461035c578063a4138b9b14610399578063a9059cbb146103d6578063dd62ed3e14610413578063f8b2cb4f1461045057610126565b806377ec0feb146102b457806389afcb44146102df57806395d89b41146103085780639c53c0ca1461033357610126565b806323b872dd116100f957806323b872dd146101c8578063313ce5671461020557806350ca755514610230578063664dc3e91461023a57806370a082311461027757610126565b806306fdde031461012b578063095ea7b3146101565780631249c58b1461019357806318160ddd1461019d575b600080fd5b34801561013757600080fd5b5061014061048d565b60405161014d9190612281565b60405180910390f35b34801561016257600080fd5b5061017d600480360381019061017891906120a6565b61051b565b60405161018a9190612266565b60405180910390f35b61019b61060d565b005b3480156101a957600080fd5b506101b26107b3565b6040516101bf9190612383565b60405180910390f35b3480156101d457600080fd5b506101ef60048036038101906101ea9190612057565b6107bd565b6040516101fc9190612266565b60405180910390f35b34801561021157600080fd5b5061021a610e5c565b6040516102279190612383565b60405180910390f35b610238610e62565b005b34801561024657600080fd5b50610261600480360381019061025c9190611fc9565b610f41565b60405161026e9190612383565b60405180910390f35b34801561028357600080fd5b5061029e60048036038101906102999190611fc9565b610f8a565b6040516102ab9190612383565b60405180910390f35b3480156102c057600080fd5b506102c9610fd3565b6040516102d69190612383565b60405180910390f35b3480156102eb57600080fd5b5061030660048036038101906103019190611fc9565b610fd9565b005b34801561031457600080fd5b5061031d61117b565b60405161032a9190612281565b60405180910390f35b34801561033f57600080fd5b5061035a60048036038101906103559190611ff2565b611209565b005b34801561036857600080fd5b50610383600480360381019061037e9190611fc9565b611437565b6040516103909190612383565b60405180910390f35b3480156103a557600080fd5b506103c060048036038101906103bb9190611fc9565b611480565b6040516103cd9190612383565b60405180910390f35b3480156103e257600080fd5b506103fd60048036038101906103f891906120a6565b6115bc565b60405161040a9190612266565b60405180910390f35b34801561041f57600080fd5b5061043a6004803603810190610435919061201b565b611ac2565b6040516104479190612383565b60405180910390f35b34801561045c57600080fd5b5061047760048036038101906104729190611fc9565b611b49565b6040516104849190612383565b60405180910390f35b6001805461049a90612567565b80601f01602080910402602001604051908101604052809291908181526020018280546104c690612567565b80156105135780601f106104e857610100808354040283529160200191610513565b820191906000526020600020905b8154815290600101906020018083116104f657829003601f168201915b505050505081565b600081600660003373ffffffffffffffffffffffffffffffffffffffff1673ffffffffffffffffffffffffffffffffffffffff16815260200190815260200160002060008573ffffffffffffffffffffffffffffffffffffffff1673ffffffffffffffffffffffffffffffffffffffff168152602001908152602001600020819055508273ffffffffffffffffffffffffffffffffffffffff163373ffffffffffffffffffffffffffffffffffffffff167f8c5be1e5ebec7d5bd14f71427d1e84f3dd0314c0f7b2291e5b200ac8c7c3b925846040516105fb9190612383565b60405180910390a36001905092915050565b336000600760008373ffffffffffffffffffffffffffffffffffffffff1673ffffffffffffffffffffffffffffffffffffffff1681526020019081526020016000205490506000811461071b57600060035482600960008673ffffffffffffffffffffffffffffffffffffffff1673ffffffffffffffffffffffffffffffffffffffff168152602001908152602001600020546008546106ad91906124a6565b6106b7919061244c565b6106c1919061241b565b905080600a60008573ffffffffffffffffffffffffffffffffffffffff1673ffffffffffffffffffffffffffffffffffffffff168152602001908152602001600020600082825461071291906123c5565b92505081905550505b600854600960008473ffffffffffffffffffffffffffffffffffffffff1673ffffffffffffffffffffffffffffffffffffffff1681526020019081526020016000208190555060003414156107a5576040517f08c379a000000000000000000000000000000000000000000000000000000000815260040161079c906122c3565b60405180910390fd5b6107af3334611b6a565b5050565b6000600554905090565b6000836000600760008373ffffffffffffffffffffffffffffffffffffffff1673ffffffffffffffffffffffffffffffffffffffff168152602001908152602001600020549050600081146108cd57600060035482600960008673ffffffffffffffffffffffffffffffffffffffff1673ffffffffffffffffffffffffffffffffffffffff1681526020019081526020016000205460085461085f91906124a6565b610869919061244c565b610873919061241b565b905080600a60008573ffffffffffffffffffffffffffffffffffffffff1673ffffffffffffffffffffffffffffffffffffffff16815260200190815260200160002060008282546108c491906123c5565b92505081905550505b600854600960008473ffffffffffffffffffffffffffffffffffffffff1673ffffffffffffffffffffffffffffffffffffffff16815260200190815260200160002081905550846000600760008373ffffffffffffffffffffffffffffffffffffffff1673ffffffffffffffffffffffffffffffffffffffff16815260200190815260200160002054905060008114610a2157600060035482600960008673ffffffffffffffffffffffffffffffffffffffff1673ffffffffffffffffffffffffffffffffffffffff168152602001908152602001600020546008546109b391906124a6565b6109bd919061244c565b6109c7919061241b565b905080600a60008573ffffffffffffffffffffffffffffffffffffffff1673ffffffffffffffffffffffffffffffffffffffff1681526020019081526020016000206000828254610a1891906123c5565b92505081905550505b600854600960008473ffffffffffffffffffffffffffffffffffffffff1673ffffffffffffffffffffffffffffffffffffffff168152602001908152602001600020819055508773ffffffffffffffffffffffffffffffffffffffff168773ffffffffffffffffffffffffffffffffffffffff161415610aa057600080fd5b600073ffffffffffffffffffffffffffffffffffffffff168773ffffffffffffffffffffffffffffffffffffffff161415610ada57600080fd5b600760008973ffffffffffffffffffffffffffffffffffffffff1673ffffffffffffffffffffffffffffffffffffffff16815260200190815260200160002054861115610b2657600080fd5b600660008973ffffffffffffffffffffffffffffffffffffffff1673ffffffffffffffffffffffffffffffffffffffff16815260200190815260200160002060003373ffffffffffffffffffffffffffffffffffffffff1673ffffffffffffffffffffffffffffffffffffffff16815260200190815260200160002054861115610baf57600080fd5b610c0186600760008b73ffffffffffffffffffffffffffffffffffffffff1673ffffffffffffffffffffffffffffffffffffffff16815260200190815260200160002054611cf490919063ffffffff16565b600760008a73ffffffffffffffffffffffffffffffffffffffff1673ffffffffffffffffffffffffffffffffffffffff16815260200190815260200160002081905550610c9686600760008a73ffffffffffffffffffffffffffffffffffffffff1673ffffffffffffffffffffffffffffffffffffffff16815260200190815260200160002054611d3e90919063ffffffff16565b600760008973ffffffffffffffffffffffffffffffffffffffff1673ffffffffffffffffffffffffffffffffffffffff16815260200190815260200160002081905550610d6886600660008b73ffffffffffffffffffffffffffffffffffffffff1673ffffffffffffffffffffffffffffffffffffffff16815260200190815260200160002060003373ffffffffffffffffffffffffffffffffffffffff1673ffffffffffffffffffffffffffffffffffffffff16815260200190815260200160002054611cf490919063ffffffff16565b600660008a73ffffffffffffffffffffffffffffffffffffffff1673ffffffffffffffffffffffffffffffffffffffff16815260200190815260200160002060003373ffffffffffffffffffffffffffffffffffffffff1673ffffffffffffffffffffffffffffffffffffffff168152602001908152602001600020819055508673ffffffffffffffffffffffffffffffffffffffff168873ffffffffffffffffffffffffffffffffffffffff167fddf252ad1be2c89b69c2b068fc378daa952ba7f163c4a11628f55a4df523b3ef88604051610e459190612383565b60405180910390a360019450505050509392505050565b60005481565b600460009054906101000a900473ffffffffffffffffffffffffffffffffffffffff1673ffffffffffffffffffffffffffffffffffffffff163373ffffffffffffffffffffffffffffffffffffffff1614610ebc57600080fd5b6000610ec66107b3565b1415610f07576040517f08c379a0000000000000000000000000000000000000000000000000000000008152600401610efe906122e3565b60405180910390fd5b610f0f6107b3565b60035434610f1d919061244c565b610f27919061241b565b60086000828254610f3891906123c5565b92505081905550565b6000600960008373ffffffffffffffffffffffffffffffffffffffff1673ffffffffffffffffffffffffffffffffffffffff168152602001908152602001600020549050919050565b6000600760008373ffffffffffffffffffffffffffffffffffffffff1673ffffffffffffffffffffffffffffffffffffffff168152602001908152602001600020549050919050565b60085481565b336000600760008373ffffffffffffffffffffffffffffffffffffffff1673ffffffffffffffffffffffffffffffffffffffff168152602001908152602001600020549050600081146110e757600060035482600960008673ffffffffffffffffffffffffffffffffffffffff1673ffffffffffffffffffffffffffffffffffffffff1681526020019081526020016000205460085461107991906124a6565b611083919061244c565b61108d919061241b565b905080600a60008573ffffffffffffffffffffffffffffffffffffffff1673ffffffffffffffffffffffffffffffffffffffff16815260200190815260200160002060008282546110de91906123c5565b92505081905550505b600854600960008473ffffffffffffffffffffffffffffffffffffffff1673ffffffffffffffffffffffffffffffffffffffff1681526020019081526020016000208190555061117683600760008673ffffffffffffffffffffffffffffffffffffffff1673ffffffffffffffffffffffffffffffffffffffff16815260200190815260200160002054611d9c565b505050565b6002805461118890612567565b80601f01602080910402602001604051908101604052809291908181526020018280546111b490612567565b80156112015780601f106111d657610100808354040283529160200191611201565b820191906000526020600020905b8154815290600101906020018083116111e457829003601f168201915b505050505081565b6000600760008373ffffffffffffffffffffffffffffffffffffffff1673ffffffffffffffffffffffffffffffffffffffff1681526020019081526020016000205490506000811415611291576040517f08c379a000000000000000000000000000000000000000000000000000000000815260040161128890612323565b60405180910390fd5b600081600960008573ffffffffffffffffffffffffffffffffffffffff1673ffffffffffffffffffffffffffffffffffffffff168152602001908152602001600020546008546112e191906124a6565b6112eb919061244c565b9050600a60008473ffffffffffffffffffffffffffffffffffffffff1673ffffffffffffffffffffffffffffffffffffffff168152602001908152602001600020548161133891906123c5565b90506000600a60008573ffffffffffffffffffffffffffffffffffffffff1673ffffffffffffffffffffffffffffffffffffffff16815260200190815260200160002081905550600854600960008573ffffffffffffffffffffffffffffffffffffffff1673ffffffffffffffffffffffffffffffffffffffff1681526020019081526020016000208190555060008373ffffffffffffffffffffffffffffffffffffffff16826040516113eb90612251565b60006040518083038185875af1925050503d8060008114611428576040519150601f19603f3d011682016040523d82523d6000602084013e61142d565b606091505b5050905050505050565b6000600a60008373ffffffffffffffffffffffffffffffffffffffff1673ffffffffffffffffffffffffffffffffffffffff168152602001908152602001600020549050919050565b600080600760008473ffffffffffffffffffffffffffffffffffffffff1673ffffffffffffffffffffffffffffffffffffffff1681526020019081526020016000205490506000811415611509576040517f08c379a0000000000000000000000000000000000000000000000000000000008152600401611500906122a3565b60405180910390fd5b600081600960008673ffffffffffffffffffffffffffffffffffffffff1673ffffffffffffffffffffffffffffffffffffffff1681526020019081526020016000205460085461155991906124a6565b611563919061244c565b9050600a60008573ffffffffffffffffffffffffffffffffffffffff1673ffffffffffffffffffffffffffffffffffffffff16815260200190815260200160002054816115b091906123c5565b90508092505050919050565b6000336000600760008373ffffffffffffffffffffffffffffffffffffffff1673ffffffffffffffffffffffffffffffffffffffff168152602001908152602001600020549050600081146116cc57600060035482600960008673ffffffffffffffffffffffffffffffffffffffff1673ffffffffffffffffffffffffffffffffffffffff1681526020019081526020016000205460085461165e91906124a6565b611668919061244c565b611672919061241b565b905080600a60008573ffffffffffffffffffffffffffffffffffffffff1673ffffffffffffffffffffffffffffffffffffffff16815260200190815260200160002060008282546116c391906123c5565b92505081905550505b600854600960008473ffffffffffffffffffffffffffffffffffffffff1673ffffffffffffffffffffffffffffffffffffffff16815260200190815260200160002081905550846000600760008373ffffffffffffffffffffffffffffffffffffffff1673ffffffffffffffffffffffffffffffffffffffff1681526020019081526020016000205490506000811461182057600060035482600960008673ffffffffffffffffffffffffffffffffffffffff1673ffffffffffffffffffffffffffffffffffffffff168152602001908152602001600020546008546117b291906124a6565b6117bc919061244c565b6117c6919061241b565b905080600a60008573ffffffffffffffffffffffffffffffffffffffff1673ffffffffffffffffffffffffffffffffffffffff168152602001908152602001600020600082825461181791906123c5565b92505081905550505b600854600960008473ffffffffffffffffffffffffffffffffffffffff1673ffffffffffffffffffffffffffffffffffffffff168152602001908152602001600020819055508673ffffffffffffffffffffffffffffffffffffffff163373ffffffffffffffffffffffffffffffffffffffff16141561189f57600080fd5b600073ffffffffffffffffffffffffffffffffffffffff168773ffffffffffffffffffffffffffffffffffffffff1614156118d957600080fd5b600760003373ffffffffffffffffffffffffffffffffffffffff1673ffffffffffffffffffffffffffffffffffffffff1681526020019081526020016000205486111561192557600080fd5b61197786600760003373ffffffffffffffffffffffffffffffffffffffff1673ffffffffffffffffffffffffffffffffffffffff16815260200190815260200160002054611cf490919063ffffffff16565b600760003373ffffffffffffffffffffffffffffffffffffffff1673ffffffffffffffffffffffffffffffffffffffff16815260200190815260200160002081905550611a0c86600760008a73ffffffffffffffffffffffffffffffffffffffff1673ffffffffffffffffffffffffffffffffffffffff16815260200190815260200160002054611d3e90919063ffffffff16565b600760008973ffffffffffffffffffffffffffffffffffffffff1673ffffffffffffffffffffffffffffffffffffffff168152602001908152602001600020819055508673ffffffffffffffffffffffffffffffffffffffff163373ffffffffffffffffffffffffffffffffffffffff167fddf252ad1be2c89b69c2b068fc378daa952ba7f163c4a11628f55a4df523b3ef88604051611aac9190612383565b60405180910390a3600194505050505092915050565b6000600660008473ffffffffffffffffffffffffffffffffffffffff1673ffffffffffffffffffffffffffffffffffffffff16815260200190815260200160002060008373ffffffffffffffffffffffffffffffffffffffff1673ffffffffffffffffffffffffffffffffffffffff16815260200190815260200160002054905092915050565b60008173ffffffffffffffffffffffffffffffffffffffff16319050919050565b600073ffffffffffffffffffffffffffffffffffffffff168273ffffffffffffffffffffffffffffffffffffffff161415611bda576040517f08c379a0000000000000000000000000000000000000000000000000000000008152600401611bd190612363565b60405180910390fd5b611bef81600554611d3e90919063ffffffff16565b600581905550611c4781600760008573ffffffffffffffffffffffffffffffffffffffff1673ffffffffffffffffffffffffffffffffffffffff16815260200190815260200160002054611d3e90919063ffffffff16565b600760008473ffffffffffffffffffffffffffffffffffffffff1673ffffffffffffffffffffffffffffffffffffffff168152602001908152602001600020819055508173ffffffffffffffffffffffffffffffffffffffff16600073ffffffffffffffffffffffffffffffffffffffff167fddf252ad1be2c89b69c2b068fc378daa952ba7f163c4a11628f55a4df523b3ef83604051611ce89190612383565b60405180910390a35050565b6000611d3683836040518060400160405280601e81526020017f536166654d6174683a207375627472616374696f6e206f766572666c6f770000815250611f26565b905092915050565b6000808284611d4d91906123c5565b905083811015611d92576040517f08c379a0000000000000000000000000000000000000000000000000000000008152600401611d8990612303565b60405180910390fd5b8091505092915050565b600073ffffffffffffffffffffffffffffffffffffffff168273ffffffffffffffffffffffffffffffffffffffff161415611e0c576040517f08c379a0000000000000000000000000000000000000000000000000000000008152600401611e0390612343565b60405180910390fd5b611e2181600554611cf490919063ffffffff16565b600581905550611e7981600760008573ffffffffffffffffffffffffffffffffffffffff1673ffffffffffffffffffffffffffffffffffffffff16815260200190815260200160002054611cf490919063ffffffff16565b600760008473ffffffffffffffffffffffffffffffffffffffff1673ffffffffffffffffffffffffffffffffffffffff16815260200190815260200160002081905550600073ffffffffffffffffffffffffffffffffffffffff168273ffffffffffffffffffffffffffffffffffffffff167fddf252ad1be2c89b69c2b068fc378daa952ba7f163c4a11628f55a4df523b3ef83604051611f1a9190612383565b60405180910390a35050565b6000838311158290611f6e576040517f08c379a0000000000000000000000000000000000000000000000000000000008152600401611f659190612281565b60405180910390fd5b5060008385611f7d91906124a6565b9050809150509392505050565b600081359050611f998161277f565b92915050565b600081359050611fae81612796565b92915050565b600081359050611fc3816127ad565b92915050565b600060208284031215611fdb57600080fd5b6000611fe984828501611f8a565b91505092915050565b60006020828403121561200457600080fd5b600061201284828501611f9f565b91505092915050565b6000806040838503121561202e57600080fd5b600061203c85828601611f8a565b925050602061204d85828601611f8a565b9150509250929050565b60008060006060848603121561206c57600080fd5b600061207a86828701611f8a565b935050602061208b86828701611f8a565b925050604061209c86828701611fb4565b9150509250925092565b600080604083850312156120b957600080fd5b60006120c785828601611f8a565b92505060206120d885828601611fb4565b9150509250929050565b6120eb816124fe565b82525050565b60006120fc8261239e565b61210681856123b4565b9350612116818560208601612534565b61211f81612626565b840191505092915050565b60006121376020836123b4565b915061214282612637565b602082019050919050565b600061215a601f836123b4565b915061216582612660565b602082019050919050565b600061217d6010836123b4565b915061218882612689565b602082019050919050565b60006121a0601b836123b4565b91506121ab826126b2565b602082019050919050565b60006121c3600e836123b4565b91506121ce826126db565b602082019050919050565b60006121e66021836123b4565b91506121f182612704565b604082019050919050565b60006122096000836123a9565b915061221482612753565b600082019050919050565b600061222c601f836123b4565b915061223782612756565b602082019050919050565b61224b8161252a565b82525050565b600061225c826121fc565b9150819050919050565b600060208201905061227b60008301846120e2565b92915050565b6000602082019050818103600083015261229b81846120f1565b905092915050565b600060208201905081810360008301526122bc8161212a565b9050919050565b600060208201905081810360008301526122dc8161214d565b9050919050565b600060208201905081810360008301526122fc81612170565b9050919050565b6000602082019050818103600083015261231c81612193565b9050919050565b6000602082019050818103600083015261233c816121b6565b9050919050565b6000602082019050818103600083015261235c816121d9565b9050919050565b6000602082019050818103600083015261237c8161221f565b9050919050565b60006020820190506123986000830184612242565b92915050565b600081519050919050565b600081905092915050565b600082825260208201905092915050565b60006123d08261252a565b91506123db8361252a565b9250827fffffffffffffffffffffffffffffffffffffffffffffffffffffffffffffffff038211156124105761240f612599565b5b828201905092915050565b60006124268261252a565b91506124318361252a565b925082612441576124406125c8565b5b828204905092915050565b60006124578261252a565b91506124628361252a565b9250817fffffffffffffffffffffffffffffffffffffffffffffffffffffffffffffffff048311821515161561249b5761249a612599565b5b828202905092915050565b60006124b18261252a565b91506124bc8361252a565b9250828210156124cf576124ce612599565b5b828203905092915050565b60006124e58261250a565b9050919050565b60006124f78261250a565b9050919050565b60008115159050919050565b600073ffffffffffffffffffffffffffffffffffffffff82169050919050565b6000819050919050565b60005b83811015612552578082015181840152602081019050612537565b83811115612561576000848401525b50505050565b6000600282049050600182168061257f57607f821691505b60208210811415612593576125926125f7565b5b50919050565b7f4e487b7100000000000000000000000000000000000000000000000000000000600052601160045260246000fd5b7f4e487b7100000000000000000000000000000000000000000000000000000000600052601260045260246000fd5b7f4e487b7100000000000000000000000000000000000000000000000000000000600052602260045260246000fd5b6000601f19601f8301169050919050565b7f44546f6b656e3a2063616c6c657220706f7373657373206e6f20736861726573600082015250565b7f4574686572207061737365642073686f756c64206265206e6f6e207a65726f00600082015250565b7f4e6f20746f6b656e73206d696e74656400000000000000000000000000000000600082015250565b7f536166654d6174683a206164646974696f6e206f766572666c6f770000000000600082015250565b7f42616c616e6365206973206e696c000000000000000000000000000000000000600082015250565b7f45524332303a206275726e2066726f6d20746865207a65726f2061646472657360008201527f7300000000000000000000000000000000000000000000000000000000000000602082015250565b50565b7f45524332303a206d696e7420746f20746865207a65726f206164647265737300600082015250565b612788816124da565b811461279357600080fd5b50565b61279f816124ec565b81146127aa57600080fd5b50565b6127b68161252a565b81146127c157600080fd5b5056fea2646970667358221220871a7a6c5b7020e9e193ec62b52694e858c7b4b00b2c197016092f97a40e932964736f6c63430008040033",
  "immutableReferences": {},
  "source": "\npragma solidity 0.8.4;\n\nimport \"./IERC20.sol\";\nimport \"./IMintableToken.sol\";\nimport \"./IDividends.sol\";\n// import \"./SafeMath.sol\";\n\n\nlibrary SafeMath {\n   \n    function add(uint256 a, uint256 b) internal pure returns (uint256) {\n        uint256 c = a + b;\n        require(c >= a, \"SafeMath: addition overflow\");\n\n        return c;\n    }\n\n    function sub(uint256 a, uint256 b) internal pure returns (uint256) {\n        return sub(a, b, \"SafeMath: subtraction overflow\");\n    }\n\n\n    function sub(\n        uint256 a,\n        uint256 b,\n        string memory errorMessage\n    ) internal pure returns (uint256) {\n        require(b <= a, errorMessage);\n        uint256 c = a - b;\n\n        return c;\n    }\n\n\n    function mul(uint256 a, uint256 b) internal pure returns (uint256) {\n       \n        if (a == 0) {\n            return 0;\n        }\n\n        uint256 c = a * b;\n        require(c / a == b, \"SafeMath: multiplication overflow\");\n\n        return c;\n    }\n\n    /**\n     * @dev Returns the integer division of two unsigned integers. Reverts on\n     * division by zero. The result is rounded towards zero.\n     *\n     * Counterpart to Solidity's `/` operator. Note: this function uses a\n     * `revert` opcode (which leaves remaining gas untouched) while Solidity\n     * uses an invalid opcode to revert (consuming all remaining gas).\n     *\n     * Requirements:\n     * - The divisor cannot be zero.\n     */\n    function div(uint256 a, uint256 b) internal pure returns (uint256) {\n        return div(a, b, \"SafeMath: division by zero\");\n    }\n\n  \n    function div(\n        uint256 a,\n        uint256 b,\n        string memory errorMessage\n    ) internal pure returns (uint256) {\n        // Solidity only automatically asserts when dividing by 0\n        require(b > 0, errorMessage);\n        uint256 c = a / b;\n        // assert(a == b * c + a % b); // There is no case in which this doesn't hold\n\n        return c;\n    }\n\n  \n    function mod(uint256 a, uint256 b) internal pure returns (uint256) {\n        return mod(a, b, \"SafeMath: modulo by zero\");\n    }\n\n    function mod(\n        uint256 a,\n        uint256 b,\n        string memory errorMessage\n    ) internal pure returns (uint256) {\n        require(b != 0, errorMessage);\n        return a % b;\n    }\n}\n\ncontract DividendContApproachOne is IERC20, IMintableToken, IDividends {\n \n  using SafeMath for uint256;\n\n    uint256 public decimals = 18;\n    string public name = \"Test token\";\n    string public symbol = \"TEST\";\n\n    // to take care of the rounding off error\n    uint256 MULTIPLIER = 1000000000000000000;\n    address owner;\n    uint256 private totalSupply_;\n    mapping (address => mapping (address => uint256)) internal allowed;\n    mapping(address => uint256) internal balance;\n\n    //Eth share of each token in gwei\n    uint256 public dividendPerToken;\n    //user share of dividend\n    mapping(address => uint256) userDividendPerToken;\n    //Amount that should have been withdrawn\n    mapping (address => uint256) amt;//credit;\n\n  \n    modifier onlyOwner() {\n        require(msg.sender == owner);\n        _;\n    }\n\n    modifier updateDividend(address addr) {\n\n        uint256 recipientBalance = balance[addr];\n        if(recipientBalance != 0) {\n            uint256 amount = ( (dividendPerToken - userDividendPerToken[addr]) * recipientBalance / MULTIPLIER);\n            amt[addr] += amount;\n        }\n        userDividendPerToken[addr] = dividendPerToken;\n        _;\n    }\n    constructor() public {\n\n        totalSupply_ = 100000;\n        owner = msg.sender;\n\n    }\n\n \n function transfer(address _to, uint256 _value) updateDividend(msg.sender) updateDividend(_to)  external override returns(bool) {\n        require(msg.sender != _to);\n        require(_to != address(0));\n        require(_value <= balance[msg.sender]);\n        balance[msg.sender]= (balance[msg.sender]).sub(_value);\n        balance[_to] = (balance[_to]).add(_value);\n        emit Transfer(msg.sender, _to, _value);\n        return true;\n  }\n\n\n\n   function approve(address _spender, uint256 _value) external override returns (bool) {\n        (allowed[msg.sender][_spender]) = _value;\n        emit Approval(msg.sender, _spender, _value);\n        return true;\n  }\n\n  function transferFrom(\n    address _from,\n    address _to,\n    uint256 _value\n  )\n    updateDividend(_from)\n    updateDividend(_to)\n    external\n    override\n    returns (bool)\n  {\n      require(_to != _from);\n      require(_to != address(0));\n      require(_value <= balance[_from]);\n      require(_value <= (allowed[_from][msg.sender]));\n\n      balance[_from] = (balance[_from]).sub(_value);\n      balance[_to] = (balance[_to]).add(_value);\n      (allowed[_from][msg.sender]) = (allowed[_from][msg.sender]).sub(_value);\n      emit Transfer(_from, _to, _value);\n      return true;\n  }\n\n\n\nfunction getUserDividendPerToken(address addr) public view returns(uint256) {\n        return userDividendPerToken[addr];\n    }\n\n function getAmt(address addr) public view returns(uint256) {\n        return amt[addr];\n    }\n\n\n function totalSupply() public view returns (uint256) {\n        return totalSupply_;\n    }\n\n\n  function allowance(\n    address _owner,\n    address _spender\n   )\n    public\n    view override\n    returns (uint256)\n  {\n        return (allowed[_owner][_spender]);\n  }\n\n   function balanceOf(address _owner) external view override returns(uint256) {\n        return balance[_owner];\n  }\n\n  function getBalance(address _addr) external view returns(uint256) {\n        return address(_addr).balance;\n    }\n  // IMintableToken\n\n  function mint() updateDividend(msg.sender) external payable override {\n        require(msg.value != 0,\"Ether passed should be non zero\");\n        _mint(msg.sender, msg.value);\n  }\n\n\n\n   function _mint(address account, uint256 amount) internal {\n        require(account != address(0), \"ERC20: mint to the zero address\");\n\n        totalSupply_ = totalSupply_.add(amount);\n        balance[account] = balance[account].add(amount);\n        emit Transfer(address(0), account, amount);\n    }\n\n   function burn(address _addr) updateDividend(msg.sender) external override{\n        _burn(_addr, balance[_addr]);\n    }\n\n\n\n  // IDividends\n\n  function recordDividend() external onlyOwner payable override {\n\n        require(totalSupply() != 0, \"No tokens minted\");\n        dividendPerToken += msg.value * MULTIPLIER / totalSupply();\n\n  }\n\n\n   function getWithdrawableDividend(address payee) external  view override returns (uint256) {\n   \n        uint256 holderBalance = balance[payee];\n        require(holderBalance != 0, \"DToken: caller possess no shares\");\n        uint256 amount = ( (dividendPerToken - userDividendPerToken[payee]) * holderBalance );\n        amount += amt[payee];\n        return amount;\n  }\n\n  function withdrawDividend(address payable payee) external override {\n        \n        uint256 holderBalance = balance[payee];\n        require(holderBalance != 0, \"Balance is nil\");\n\n        uint256 amount = ( (dividendPerToken - userDividendPerToken[payee]) * holderBalance );\n        amount += amt[payee];\n        amt[payee] = 0;\n        userDividendPerToken[payee] = dividendPerToken;\n\n       (bool success, ) = payable(payee).call{value: amount}(\"\");        \n\n    }\n\nfunction _burn(address account, uint256 amount) internal {\n       \n        require(account != address(0), \"ERC20: burn from the zero address\");\n        totalSupply_ = totalSupply_.sub(amount);\n        balance[account] = balance[account].sub(amount);\n        emit Transfer(account, address(0), amount);\n\n    }\n\n\n//Events\n   event Transfer(\n        address indexed from,\n        address indexed to,\n        uint256 value\n    );\n    \n    event Approval(\n    address indexed owner,\n    address indexed spender,\n    uint256 value\n    );\n}\n",
  "sourcePath": "/Users/wasim/temo/SumeruDividendContract/Sumeru/contracts/DividendContApproachOne.sol",
  "compiler": {
    "name": "solc",
    "version": "0.8.4+commit.c7e474f2.Linux.g++"
  },
  "schemaVersion": "3.4.3",
  "updatedAt": "2022-04-12T14:42:35.262Z",
  "networkType": "ethereum",
  "devdoc": {
    "kind": "dev",
    "methods": {
      "getWithdrawableDividend(address)": {
        "returns": {
          "_0": "the withdrawable dividend."
        }
      },
      "mint()": {
        "details": "Deposit ETH and mint equal no. of tokens to the caller's balance. Throws error if no ETH is supplied."
      }
    },
    "version": 1
  },
  "userdoc": {
    "kind": "user",
    "methods": {
      "getWithdrawableDividend(address)": {
        "notice": "Get current withdrawable dividend for given payee."
      },
      "recordDividend()": {
        "notice": "Record a new dividend to be paid to all current token holders. Dividend amount equals `msg.value`. Each token holder should be assigned a percentage of dividend according  to their proportion of the token supply. Throws an error if no ETH is supplied."
      }
    },
    "version": 1
  }
}