{
  "contractName": "DividendContApproachOne",
  "abi": [
    {
      "inputs": [],
      "stateMutability": "nonpayable",
      "type": "constructor"
    },
    {
      "anonymous": false,
      "inputs": [
        {
          "indexed": true,
          "internalType": "address",
          "name": "owner",
          "type": "address"
        },
        {
          "indexed": true,
          "internalType": "address",
          "name": "spender",
          "type": "address"
        },
        {
          "indexed": false,
          "internalType": "uint256",
          "name": "value",
          "type": "uint256"
        }
      ],
      "name": "Approval",
      "type": "event"
    },
    {
      "anonymous": false,
      "inputs": [
        {
          "indexed": true,
          "internalType": "address",
          "name": "from",
          "type": "address"
        },
        {
          "indexed": true,
          "internalType": "address",
          "name": "to",
          "type": "address"
        },
        {
          "indexed": false,
          "internalType": "uint256",
          "name": "value",
          "type": "uint256"
        }
      ],
      "name": "Transfer",
      "type": "event"
    },
    {
      "inputs": [],
      "name": "decimals",
      "outputs": [
        {
          "internalType": "uint256",
          "name": "",
          "type": "uint256"
        }
      ],
      "stateMutability": "view",
      "type": "function",
      "constant": true
    },
    {
      "inputs": [],
      "name": "dividendPerToken",
      "outputs": [
        {
          "internalType": "uint256",
          "name": "",
          "type": "uint256"
        }
      ],
      "stateMutability": "view",
      "type": "function",
      "constant": true
    },
    {
      "inputs": [],
      "name": "name",
      "outputs": [
        {
          "internalType": "string",
          "name": "",
          "type": "string"
        }
      ],
      "stateMutability": "view",
      "type": "function",
      "constant": true
    },
    {
      "inputs": [],
      "name": "symbol",
      "outputs": [
        {
          "internalType": "string",
          "name": "",
          "type": "string"
        }
      ],
      "stateMutability": "view",
      "type": "function",
      "constant": true
    },
    {
      "inputs": [
        {
          "internalType": "address",
          "name": "_to",
          "type": "address"
        },
        {
          "internalType": "uint256",
          "name": "_value",
          "type": "uint256"
        }
      ],
      "name": "transfer",
      "outputs": [
        {
          "internalType": "bool",
          "name": "",
          "type": "bool"
        }
      ],
      "stateMutability": "nonpayable",
      "type": "function"
    },
    {
      "inputs": [
        {
          "internalType": "address",
          "name": "_spender",
          "type": "address"
        },
        {
          "internalType": "uint256",
          "name": "_value",
          "type": "uint256"
        }
      ],
      "name": "approve",
      "outputs": [
        {
          "internalType": "bool",
          "name": "",
          "type": "bool"
        }
      ],
      "stateMutability": "nonpayable",
      "type": "function"
    },
    {
      "inputs": [
        {
          "internalType": "address",
          "name": "_from",
          "type": "address"
        },
        {
          "internalType": "address",
          "name": "_to",
          "type": "address"
        },
        {
          "internalType": "uint256",
          "name": "_value",
          "type": "uint256"
        }
      ],
      "name": "transferFrom",
      "outputs": [
        {
          "internalType": "bool",
          "name": "",
          "type": "bool"
        }
      ],
      "stateMutability": "nonpayable",
      "type": "function"
    },
    {
      "inputs": [
        {
          "internalType": "address",
          "name": "addr",
          "type": "address"
        }
      ],
      "name": "getUserDividendPerToken",
      "outputs": [
        {
          "internalType": "uint256",
          "name": "",
          "type": "uint256"
        }
      ],
      "stateMutability": "view",
      "type": "function",
      "constant": true
    },
    {
      "inputs": [
        {
          "internalType": "address",
          "name": "addr",
          "type": "address"
        }
      ],
      "name": "getAmt",
      "outputs": [
        {
          "internalType": "uint256",
          "name": "",
          "type": "uint256"
        }
      ],
      "stateMutability": "view",
      "type": "function",
      "constant": true
    },
    {
      "inputs": [],
      "name": "totalSupply",
      "outputs": [
        {
          "internalType": "uint256",
          "name": "",
          "type": "uint256"
        }
      ],
      "stateMutability": "view",
      "type": "function",
      "constant": true
    },
    {
      "inputs": [
        {
          "internalType": "address",
          "name": "_owner",
          "type": "address"
        },
        {
          "internalType": "address",
          "name": "_spender",
          "type": "address"
        }
      ],
      "name": "allowance",
      "outputs": [
        {
          "internalType": "uint256",
          "name": "",
          "type": "uint256"
        }
      ],
      "stateMutability": "view",
      "type": "function",
      "constant": true
    },
    {
      "inputs": [
        {
          "internalType": "address",
          "name": "_owner",
          "type": "address"
        }
      ],
      "name": "balanceOf",
      "outputs": [
        {
          "internalType": "uint256",
          "name": "",
          "type": "uint256"
        }
      ],
      "stateMutability": "view",
      "type": "function",
      "constant": true
    },
    {
      "inputs": [
        {
          "internalType": "address",
          "name": "_addr",
          "type": "address"
        }
      ],
      "name": "getBalance",
      "outputs": [
        {
          "internalType": "uint256",
          "name": "",
          "type": "uint256"
        }
      ],
      "stateMutability": "view",
      "type": "function",
      "constant": true
    },
    {
      "inputs": [],
      "name": "mint",
      "outputs": [],
      "stateMutability": "payable",
      "type": "function",
      "payable": true
    },
    {
      "inputs": [
        {
          "internalType": "address",
          "name": "_addr",
          "type": "address"
        }
      ],
      "name": "burn",
      "outputs": [],
      "stateMutability": "nonpayable",
      "type": "function"
    },
    {
      "inputs": [],
      "name": "recordDividend",
      "outputs": [],
      "stateMutability": "payable",
      "type": "function",
      "payable": true
    },
    {
      "inputs": [
        {
          "internalType": "address",
          "name": "payee",
          "type": "address"
        }
      ],
      "name": "getWithdrawableDividend",
      "outputs": [
        {
          "internalType": "uint256",
          "name": "",
          "type": "uint256"
        }
      ],
      "stateMutability": "view",
      "type": "function",
      "constant": true
    },
    {
      "inputs": [
        {
          "internalType": "address payable",
          "name": "payee",
          "type": "address"
        }
      ],
      "name": "withdrawDividend",
      "outputs": [],
      "stateMutability": "nonpayable",
      "type": "function"
    }
  ],
  "bytecode": "0x608060405260126000556040518060400160405280600a81526020017f5465737420746f6b656e000000000000000000000000000000000000000000008152506001908051906020019062000056929190620000cf565b506040518060400160405280600481526020017f544553540000000000000000000000000000000000000000000000000000000081525060029080519060200190620000a4929190620000cf565b50670de0b6b3a7640000600355348015620000be57600080fd5b50620186a0600581905550620001e4565b828054620000dd906200017f565b90600052602060002090601f0160209004810192826200010157600085556200014d565b82601f106200011c57805160ff19168380011785556200014d565b828001600101855582156200014d579182015b828111156200014c5782518255916020019190600101906200012f565b5b5090506200015c919062000160565b5090565b5b808211156200017b57600081600090555060010162000161565b5090565b600060028204905060018216806200019857607f821691505b60208210811415620001af57620001ae620001b5565b5b50919050565b7f4e487b7100000000000000000000000000000000000000000000000000000000600052602260045260246000fd5b61269f80620001f46000396000f3fe608060405260043610610126576000357c01000000000000000000000000000000000000000000000000000000009004806377ec0feb116100b2578063a2505f9c11610081578063a2505f9c1461035c578063a4138b9b14610399578063a9059cbb146103d6578063dd62ed3e14610413578063f8b2cb4f1461045057610126565b806377ec0feb146102b457806389afcb44146102df57806395d89b41146103085780639c53c0ca1461033357610126565b806323b872dd116100f957806323b872dd146101c8578063313ce5671461020557806350ca755514610230578063664dc3e91461023a57806370a082311461027757610126565b806306fdde031461012b578063095ea7b3146101565780631249c58b1461019357806318160ddd1461019d575b600080fd5b34801561013757600080fd5b5061014061048d565b60405161014d919061216f565b60405180910390f35b34801561016257600080fd5b5061017d60048036038101906101789190611fb7565b61051b565b60405161018a9190612154565b60405180910390f35b61019b61060d565b005b3480156101a957600080fd5b506101b26107b3565b6040516101bf9190612251565b60405180910390f35b3480156101d457600080fd5b506101ef60048036038101906101ea9190611f68565b6107bd565b6040516101fc9190612154565b60405180910390f35b34801561021157600080fd5b5061021a610e5c565b6040516102279190612251565b60405180910390f35b610238610e62565b005b34801561024657600080fd5b50610261600480360381019061025c9190611eda565b610ee7565b60405161026e9190612251565b60405180910390f35b34801561028357600080fd5b5061029e60048036038101906102999190611eda565b610f30565b6040516102ab9190612251565b60405180910390f35b3480156102c057600080fd5b506102c9610f79565b6040516102d69190612251565b60405180910390f35b3480156102eb57600080fd5b5061030660048036038101906103019190611eda565b610f7f565b005b34801561031457600080fd5b5061031d611121565b60405161032a919061216f565b60405180910390f35b34801561033f57600080fd5b5061035a60048036038101906103559190611f03565b6111af565b005b34801561036857600080fd5b50610383600480360381019061037e9190611eda565b6113dd565b6040516103909190612251565b60405180910390f35b3480156103a557600080fd5b506103c060048036038101906103bb9190611eda565b611426565b6040516103cd9190612251565b60405180910390f35b3480156103e257600080fd5b506103fd60048036038101906103f89190611fb7565b611562565b60405161040a9190612154565b60405180910390f35b34801561041f57600080fd5b5061043a60048036038101906104359190611f2c565b611a68565b6040516104479190612251565b60405180910390f35b34801561045c57600080fd5b5061047760048036038101906104729190611eda565b611aef565b6040516104849190612251565b60405180910390f35b6001805461049a90612435565b80601f01602080910402602001604051908101604052809291908181526020018280546104c690612435565b80156105135780601f106104e857610100808354040283529160200191610513565b820191906000526020600020905b8154815290600101906020018083116104f657829003601f168201915b505050505081565b600081600660003373ffffffffffffffffffffffffffffffffffffffff1673ffffffffffffffffffffffffffffffffffffffff16815260200190815260200160002060008573ffffffffffffffffffffffffffffffffffffffff1673ffffffffffffffffffffffffffffffffffffffff168152602001908152602001600020819055508273ffffffffffffffffffffffffffffffffffffffff163373ffffffffffffffffffffffffffffffffffffffff167f8c5be1e5ebec7d5bd14f71427d1e84f3dd0314c0f7b2291e5b200ac8c7c3b925846040516105fb9190612251565b60405180910390a36001905092915050565b336000600760008373ffffffffffffffffffffffffffffffffffffffff1673ffffffffffffffffffffffffffffffffffffffff1681526020019081526020016000205490506000811461071b57600060035482600960008673ffffffffffffffffffffffffffffffffffffffff1673ffffffffffffffffffffffffffffffffffffffff168152602001908152602001600020546008546106ad9190612374565b6106b7919061231a565b6106c191906122e9565b905080600a60008573ffffffffffffffffffffffffffffffffffffffff1673ffffffffffffffffffffffffffffffffffffffff16815260200190815260200160002060008282546107129190612293565b92505081905550505b600854600960008473ffffffffffffffffffffffffffffffffffffffff1673ffffffffffffffffffffffffffffffffffffffff1681526020019081526020016000208190555060003414156107a5576040517f08c379a000000000000000000000000000000000000000000000000000000000815260040161079c906121b1565b60405180910390fd5b6107af3334611b10565b5050565b6000600554905090565b6000836000600760008373ffffffffffffffffffffffffffffffffffffffff1673ffffffffffffffffffffffffffffffffffffffff168152602001908152602001600020549050600081146108cd57600060035482600960008673ffffffffffffffffffffffffffffffffffffffff1673ffffffffffffffffffffffffffffffffffffffff1681526020019081526020016000205460085461085f9190612374565b610869919061231a565b61087391906122e9565b905080600a60008573ffffffffffffffffffffffffffffffffffffffff1673ffffffffffffffffffffffffffffffffffffffff16815260200190815260200160002060008282546108c49190612293565b92505081905550505b600854600960008473ffffffffffffffffffffffffffffffffffffffff1673ffffffffffffffffffffffffffffffffffffffff16815260200190815260200160002081905550846000600760008373ffffffffffffffffffffffffffffffffffffffff1673ffffffffffffffffffffffffffffffffffffffff16815260200190815260200160002054905060008114610a2157600060035482600960008673ffffffffffffffffffffffffffffffffffffffff1673ffffffffffffffffffffffffffffffffffffffff168152602001908152602001600020546008546109b39190612374565b6109bd919061231a565b6109c791906122e9565b905080600a60008573ffffffffffffffffffffffffffffffffffffffff1673ffffffffffffffffffffffffffffffffffffffff1681526020019081526020016000206000828254610a189190612293565b92505081905550505b600854600960008473ffffffffffffffffffffffffffffffffffffffff1673ffffffffffffffffffffffffffffffffffffffff168152602001908152602001600020819055508773ffffffffffffffffffffffffffffffffffffffff168773ffffffffffffffffffffffffffffffffffffffff161415610aa057600080fd5b600073ffffffffffffffffffffffffffffffffffffffff168773ffffffffffffffffffffffffffffffffffffffff161415610ada57600080fd5b600760008973ffffffffffffffffffffffffffffffffffffffff1673ffffffffffffffffffffffffffffffffffffffff16815260200190815260200160002054861115610b2657600080fd5b600660008973ffffffffffffffffffffffffffffffffffffffff1673ffffffffffffffffffffffffffffffffffffffff16815260200190815260200160002060003373ffffffffffffffffffffffffffffffffffffffff1673ffffffffffffffffffffffffffffffffffffffff16815260200190815260200160002054861115610baf57600080fd5b610c0186600760008b73ffffffffffffffffffffffffffffffffffffffff1673ffffffffffffffffffffffffffffffffffffffff16815260200190815260200160002054611c9a90919063ffffffff16565b600760008a73ffffffffffffffffffffffffffffffffffffffff1673ffffffffffffffffffffffffffffffffffffffff16815260200190815260200160002081905550610c9686600760008a73ffffffffffffffffffffffffffffffffffffffff1673ffffffffffffffffffffffffffffffffffffffff16815260200190815260200160002054611ce490919063ffffffff16565b600760008973ffffffffffffffffffffffffffffffffffffffff1673ffffffffffffffffffffffffffffffffffffffff16815260200190815260200160002081905550610d6886600660008b73ffffffffffffffffffffffffffffffffffffffff1673ffffffffffffffffffffffffffffffffffffffff16815260200190815260200160002060003373ffffffffffffffffffffffffffffffffffffffff1673ffffffffffffffffffffffffffffffffffffffff16815260200190815260200160002054611c9a90919063ffffffff16565b600660008a73ffffffffffffffffffffffffffffffffffffffff1673ffffffffffffffffffffffffffffffffffffffff16815260200190815260200160002060003373ffffffffffffffffffffffffffffffffffffffff1673ffffffffffffffffffffffffffffffffffffffff168152602001908152602001600020819055508673ffffffffffffffffffffffffffffffffffffffff168873ffffffffffffffffffffffffffffffffffffffff167fddf252ad1be2c89b69c2b068fc378daa952ba7f163c4a11628f55a4df523b3ef88604051610e459190612251565b60405180910390a360019450505050509392505050565b60005481565b6000610e6c6107b3565b1415610ead576040517f08c379a0000000000000000000000000000000000000000000000000000000008152600401610ea4906121d1565b60405180910390fd5b610eb56107b3565b60035434610ec3919061231a565b610ecd91906122e9565b60086000828254610ede9190612293565b92505081905550565b6000600960008373ffffffffffffffffffffffffffffffffffffffff1673ffffffffffffffffffffffffffffffffffffffff168152602001908152602001600020549050919050565b6000600760008373ffffffffffffffffffffffffffffffffffffffff1673ffffffffffffffffffffffffffffffffffffffff168152602001908152602001600020549050919050565b60085481565b336000600760008373ffffffffffffffffffffffffffffffffffffffff1673ffffffffffffffffffffffffffffffffffffffff1681526020019081526020016000205490506000811461108d57600060035482600960008673ffffffffffffffffffffffffffffffffffffffff1673ffffffffffffffffffffffffffffffffffffffff1681526020019081526020016000205460085461101f9190612374565b611029919061231a565b61103391906122e9565b905080600a60008573ffffffffffffffffffffffffffffffffffffffff1673ffffffffffffffffffffffffffffffffffffffff16815260200190815260200160002060008282546110849190612293565b92505081905550505b600854600960008473ffffffffffffffffffffffffffffffffffffffff1673ffffffffffffffffffffffffffffffffffffffff1681526020019081526020016000208190555061111c83600760008673ffffffffffffffffffffffffffffffffffffffff1673ffffffffffffffffffffffffffffffffffffffff16815260200190815260200160002054611d42565b505050565b6002805461112e90612435565b80601f016020809104026020016040519081016040528092919081815260200182805461115a90612435565b80156111a75780601f1061117c576101008083540402835291602001916111a7565b820191906000526020600020905b81548152906001019060200180831161118a57829003601f168201915b505050505081565b6000600760008373ffffffffffffffffffffffffffffffffffffffff1673ffffffffffffffffffffffffffffffffffffffff1681526020019081526020016000205490506000811415611237576040517f08c379a000000000000000000000000000000000000000000000000000000000815260040161122e90612191565b60405180910390fd5b600081600960008573ffffffffffffffffffffffffffffffffffffffff1673ffffffffffffffffffffffffffffffffffffffff168152602001908152602001600020546008546112879190612374565b611291919061231a565b9050600a60008473ffffffffffffffffffffffffffffffffffffffff1673ffffffffffffffffffffffffffffffffffffffff16815260200190815260200160002054816112de9190612293565b90506000600a60008573ffffffffffffffffffffffffffffffffffffffff1673ffffffffffffffffffffffffffffffffffffffff16815260200190815260200160002081905550600854600960008573ffffffffffffffffffffffffffffffffffffffff1673ffffffffffffffffffffffffffffffffffffffff1681526020019081526020016000208190555060008373ffffffffffffffffffffffffffffffffffffffff16826040516113919061213f565b60006040518083038185875af1925050503d80600081146113ce576040519150601f19603f3d011682016040523d82523d6000602084013e6113d3565b606091505b5050905050505050565b6000600a60008373ffffffffffffffffffffffffffffffffffffffff1673ffffffffffffffffffffffffffffffffffffffff168152602001908152602001600020549050919050565b600080600760008473ffffffffffffffffffffffffffffffffffffffff1673ffffffffffffffffffffffffffffffffffffffff16815260200190815260200160002054905060008114156114af576040517f08c379a00000000000000000000000000000000000000000000000000000000081526004016114a690612191565b60405180910390fd5b600081600960008673ffffffffffffffffffffffffffffffffffffffff1673ffffffffffffffffffffffffffffffffffffffff168152602001908152602001600020546008546114ff9190612374565b611509919061231a565b9050600a60008573ffffffffffffffffffffffffffffffffffffffff1673ffffffffffffffffffffffffffffffffffffffff16815260200190815260200160002054816115569190612293565b90508092505050919050565b6000336000600760008373ffffffffffffffffffffffffffffffffffffffff1673ffffffffffffffffffffffffffffffffffffffff1681526020019081526020016000205490506000811461167257600060035482600960008673ffffffffffffffffffffffffffffffffffffffff1673ffffffffffffffffffffffffffffffffffffffff168152602001908152602001600020546008546116049190612374565b61160e919061231a565b61161891906122e9565b905080600a60008573ffffffffffffffffffffffffffffffffffffffff1673ffffffffffffffffffffffffffffffffffffffff16815260200190815260200160002060008282546116699190612293565b92505081905550505b600854600960008473ffffffffffffffffffffffffffffffffffffffff1673ffffffffffffffffffffffffffffffffffffffff16815260200190815260200160002081905550846000600760008373ffffffffffffffffffffffffffffffffffffffff1673ffffffffffffffffffffffffffffffffffffffff168152602001908152602001600020549050600081146117c657600060035482600960008673ffffffffffffffffffffffffffffffffffffffff1673ffffffffffffffffffffffffffffffffffffffff168152602001908152602001600020546008546117589190612374565b611762919061231a565b61176c91906122e9565b905080600a60008573ffffffffffffffffffffffffffffffffffffffff1673ffffffffffffffffffffffffffffffffffffffff16815260200190815260200160002060008282546117bd9190612293565b92505081905550505b600854600960008473ffffffffffffffffffffffffffffffffffffffff1673ffffffffffffffffffffffffffffffffffffffff168152602001908152602001600020819055508673ffffffffffffffffffffffffffffffffffffffff163373ffffffffffffffffffffffffffffffffffffffff16141561184557600080fd5b600073ffffffffffffffffffffffffffffffffffffffff168773ffffffffffffffffffffffffffffffffffffffff16141561187f57600080fd5b600760003373ffffffffffffffffffffffffffffffffffffffff1673ffffffffffffffffffffffffffffffffffffffff168152602001908152602001600020548611156118cb57600080fd5b61191d86600760003373ffffffffffffffffffffffffffffffffffffffff1673ffffffffffffffffffffffffffffffffffffffff16815260200190815260200160002054611c9a90919063ffffffff16565b600760003373ffffffffffffffffffffffffffffffffffffffff1673ffffffffffffffffffffffffffffffffffffffff168152602001908152602001600020819055506119b286600760008a73ffffffffffffffffffffffffffffffffffffffff1673ffffffffffffffffffffffffffffffffffffffff16815260200190815260200160002054611ce490919063ffffffff16565b600760008973ffffffffffffffffffffffffffffffffffffffff1673ffffffffffffffffffffffffffffffffffffffff168152602001908152602001600020819055508673ffffffffffffffffffffffffffffffffffffffff163373ffffffffffffffffffffffffffffffffffffffff167fddf252ad1be2c89b69c2b068fc378daa952ba7f163c4a11628f55a4df523b3ef88604051611a529190612251565b60405180910390a3600194505050505092915050565b6000600660008473ffffffffffffffffffffffffffffffffffffffff1673ffffffffffffffffffffffffffffffffffffffff16815260200190815260200160002060008373ffffffffffffffffffffffffffffffffffffffff1673ffffffffffffffffffffffffffffffffffffffff16815260200190815260200160002054905092915050565b60008173ffffffffffffffffffffffffffffffffffffffff16319050919050565b600073ffffffffffffffffffffffffffffffffffffffff168273ffffffffffffffffffffffffffffffffffffffff161415611b80576040517f08c379a0000000000000000000000000000000000000000000000000000000008152600401611b7790612231565b60405180910390fd5b611b9581600554611ce490919063ffffffff16565b600581905550611bed81600760008573ffffffffffffffffffffffffffffffffffffffff1673ffffffffffffffffffffffffffffffffffffffff16815260200190815260200160002054611ce490919063ffffffff16565b600760008473ffffffffffffffffffffffffffffffffffffffff1673ffffffffffffffffffffffffffffffffffffffff168152602001908152602001600020819055508173ffffffffffffffffffffffffffffffffffffffff16600073ffffffffffffffffffffffffffffffffffffffff167fddf252ad1be2c89b69c2b068fc378daa952ba7f163c4a11628f55a4df523b3ef83604051611c8e9190612251565b60405180910390a35050565b6000611cdc83836040518060400160405280601e81526020017f536166654d6174683a207375627472616374696f6e206f766572666c6f770000815250611e37565b905092915050565b6000808284611cf39190612293565b905083811015611d38576040517f08c379a0000000000000000000000000000000000000000000000000000000008152600401611d2f906121f1565b60405180910390fd5b8091505092915050565b600073ffffffffffffffffffffffffffffffffffffffff168273ffffffffffffffffffffffffffffffffffffffff161415611db2576040517f08c379a0000000000000000000000000000000000000000000000000000000008152600401611da990612211565b60405180910390fd5b611dc781600554611c9a90919063ffffffff16565b600581905550600073ffffffffffffffffffffffffffffffffffffffff168273ffffffffffffffffffffffffffffffffffffffff167fddf252ad1be2c89b69c2b068fc378daa952ba7f163c4a11628f55a4df523b3ef83604051611e2b9190612251565b60405180910390a35050565b6000838311158290611e7f576040517f08c379a0000000000000000000000000000000000000000000000000000000008152600401611e76919061216f565b60405180910390fd5b5060008385611e8e9190612374565b9050809150509392505050565b600081359050611eaa81612624565b92915050565b600081359050611ebf8161263b565b92915050565b600081359050611ed481612652565b92915050565b600060208284031215611eec57600080fd5b6000611efa84828501611e9b565b91505092915050565b600060208284031215611f1557600080fd5b6000611f2384828501611eb0565b91505092915050565b60008060408385031215611f3f57600080fd5b6000611f4d85828601611e9b565b9250506020611f5e85828601611e9b565b9150509250929050565b600080600060608486031215611f7d57600080fd5b6000611f8b86828701611e9b565b9350506020611f9c86828701611e9b565b9250506040611fad86828701611ec5565b9150509250925092565b60008060408385031215611fca57600080fd5b6000611fd885828601611e9b565b9250506020611fe985828601611ec5565b9150509250929050565b611ffc816123cc565b82525050565b600061200d8261226c565b6120178185612282565b9350612027818560208601612402565b612030816124f4565b840191505092915050565b6000612048602083612282565b915061205382612505565b602082019050919050565b600061206b601f83612282565b91506120768261252e565b602082019050919050565b600061208e601083612282565b915061209982612557565b602082019050919050565b60006120b1601b83612282565b91506120bc82612580565b602082019050919050565b60006120d4602183612282565b91506120df826125a9565b604082019050919050565b60006120f7600083612277565b9150612102826125f8565b600082019050919050565b600061211a601f83612282565b9150612125826125fb565b602082019050919050565b612139816123f8565b82525050565b600061214a826120ea565b9150819050919050565b60006020820190506121696000830184611ff3565b92915050565b600060208201905081810360008301526121898184612002565b905092915050565b600060208201905081810360008301526121aa8161203b565b9050919050565b600060208201905081810360008301526121ca8161205e565b9050919050565b600060208201905081810360008301526121ea81612081565b9050919050565b6000602082019050818103600083015261220a816120a4565b9050919050565b6000602082019050818103600083015261222a816120c7565b9050919050565b6000602082019050818103600083015261224a8161210d565b9050919050565b60006020820190506122666000830184612130565b92915050565b600081519050919050565b600081905092915050565b600082825260208201905092915050565b600061229e826123f8565b91506122a9836123f8565b9250827fffffffffffffffffffffffffffffffffffffffffffffffffffffffffffffffff038211156122de576122dd612467565b5b828201905092915050565b60006122f4826123f8565b91506122ff836123f8565b92508261230f5761230e612496565b5b828204905092915050565b6000612325826123f8565b9150612330836123f8565b9250817fffffffffffffffffffffffffffffffffffffffffffffffffffffffffffffffff048311821515161561236957612368612467565b5b828202905092915050565b600061237f826123f8565b915061238a836123f8565b92508282101561239d5761239c612467565b5b828203905092915050565b60006123b3826123d8565b9050919050565b60006123c5826123d8565b9050919050565b60008115159050919050565b600073ffffffffffffffffffffffffffffffffffffffff82169050919050565b6000819050919050565b60005b83811015612420578082015181840152602081019050612405565b8381111561242f576000848401525b50505050565b6000600282049050600182168061244d57607f821691505b60208210811415612461576124606124c5565b5b50919050565b7f4e487b7100000000000000000000000000000000000000000000000000000000600052601160045260246000fd5b7f4e487b7100000000000000000000000000000000000000000000000000000000600052601260045260246000fd5b7f4e487b7100000000000000000000000000000000000000000000000000000000600052602260045260246000fd5b6000601f19601f8301169050919050565b7f44546f6b656e3a2063616c6c657220706f7373657373206e6f20736861726573600082015250565b7f4574686572207061737365642073686f756c64206265206e6f6e207a65726f00600082015250565b7f4e6f20746f6b656e73206d696e74656400000000000000000000000000000000600082015250565b7f536166654d6174683a206164646974696f6e206f766572666c6f770000000000600082015250565b7f45524332303a206275726e2066726f6d20746865207a65726f2061646472657360008201527f7300000000000000000000000000000000000000000000000000000000000000602082015250565b50565b7f45524332303a206d696e7420746f20746865207a65726f206164647265737300600082015250565b61262d816123a8565b811461263857600080fd5b50565b612644816123ba565b811461264f57600080fd5b50565b61265b816123f8565b811461266657600080fd5b5056fea2646970667358221220cdfa42809d6405f2f643a38abde8253e560faf77663a8d5adb682cec1f3858c464736f6c63430008040033",
  "immutableReferences": {},
  "source": "\npragma solidity 0.8.4;\n\nimport \"./IERC20.sol\";\nimport \"./IMintableToken.sol\";\nimport \"./IDividends.sol\";\n// import \"./SafeMath.sol\";\n\n\nlibrary SafeMath {\n   \n    function add(uint256 a, uint256 b) internal pure returns (uint256) {\n        uint256 c = a + b;\n        require(c >= a, \"SafeMath: addition overflow\");\n\n        return c;\n    }\n\n    function sub(uint256 a, uint256 b) internal pure returns (uint256) {\n        return sub(a, b, \"SafeMath: subtraction overflow\");\n    }\n\n\n    function sub(\n        uint256 a,\n        uint256 b,\n        string memory errorMessage\n    ) internal pure returns (uint256) {\n        require(b <= a, errorMessage);\n        uint256 c = a - b;\n\n        return c;\n    }\n\n\n    function mul(uint256 a, uint256 b) internal pure returns (uint256) {\n       \n        if (a == 0) {\n            return 0;\n        }\n\n        uint256 c = a * b;\n        require(c / a == b, \"SafeMath: multiplication overflow\");\n\n        return c;\n    }\n\n    /**\n     * @dev Returns the integer division of two unsigned integers. Reverts on\n     * division by zero. The result is rounded towards zero.\n     *\n     * Counterpart to Solidity's `/` operator. Note: this function uses a\n     * `revert` opcode (which leaves remaining gas untouched) while Solidity\n     * uses an invalid opcode to revert (consuming all remaining gas).\n     *\n     * Requirements:\n     * - The divisor cannot be zero.\n     */\n    function div(uint256 a, uint256 b) internal pure returns (uint256) {\n        return div(a, b, \"SafeMath: division by zero\");\n    }\n\n  \n    function div(\n        uint256 a,\n        uint256 b,\n        string memory errorMessage\n    ) internal pure returns (uint256) {\n        // Solidity only automatically asserts when dividing by 0\n        require(b > 0, errorMessage);\n        uint256 c = a / b;\n        // assert(a == b * c + a % b); // There is no case in which this doesn't hold\n\n        return c;\n    }\n\n  \n    function mod(uint256 a, uint256 b) internal pure returns (uint256) {\n        return mod(a, b, \"SafeMath: modulo by zero\");\n    }\n\n    function mod(\n        uint256 a,\n        uint256 b,\n        string memory errorMessage\n    ) internal pure returns (uint256) {\n        require(b != 0, errorMessage);\n        return a % b;\n    }\n}\n\ncontract DividendContApproachOne is IERC20, IMintableToken, IDividends {\n \n  using SafeMath for uint256;\n\n    uint256 public decimals = 18;\n    string public name = \"Test token\";\n    string public symbol = \"TEST\";\n\n    uint256 MULTIPLIER = 1000000000000000000;\n    address owner;\n    uint256 private totalSupply_;\n    mapping (address => mapping (address => uint256)) internal allowed;\n    mapping(address => uint256) internal balance;\n\n    //Eth share of each token in gwei\n    uint256 public dividendPerToken;\n    //user share of dividend\n    mapping(address => uint256) userDividendPerToken; //xDividendPerToken;\n    //Amount that should have been withdrawn\n    mapping (address => uint256) amt;//credit;\n\n  \n    modifier onlyOwner() {\n        require(msg.sender == owner);\n        _;\n    }\n\n    modifier updateDividend(address addr) {\n\n        uint256 recipientBalance = balance[addr];\n        if(recipientBalance != 0) {\n            uint256 amount = ( (dividendPerToken - userDividendPerToken[addr]) * recipientBalance / MULTIPLIER);\n            amt[addr] += amount;\n        }\n        userDividendPerToken[addr] = dividendPerToken;\n        _;\n    }\n    constructor() public {\n\n        totalSupply_ = 100000;\n\n    }\n\n \n function transfer(address _to, uint256 _value) updateDividend(msg.sender) updateDividend(_to)  external override returns(bool) {\n        require(msg.sender != _to);\n        require(_to != address(0));\n        require(_value <= balance[msg.sender]);\n        balance[msg.sender]= (balance[msg.sender]).sub(_value);\n        balance[_to] = (balance[_to]).add(_value);\n        emit Transfer(msg.sender, _to, _value);\n        return true;\n  }\n\n\n\n   function approve(address _spender, uint256 _value) external override returns (bool) {\n        (allowed[msg.sender][_spender]) = _value;\n        emit Approval(msg.sender, _spender, _value);\n        return true;\n  }\n\n  function transferFrom(\n    address _from,\n    address _to,\n    uint256 _value\n  )\n    updateDividend(_from)\n    updateDividend(_to)\n    external\n    override\n    returns (bool)\n  {\n      require(_to != _from);\n      require(_to != address(0));\n      require(_value <= balance[_from]);\n      require(_value <= (allowed[_from][msg.sender]));\n\n      balance[_from] = (balance[_from]).sub(_value);\n      balance[_to] = (balance[_to]).add(_value);\n      (allowed[_from][msg.sender]) = (allowed[_from][msg.sender]).sub(_value);\n      emit Transfer(_from, _to, _value);\n      return true;\n  }\n\n\n\nfunction getUserDividendPerToken(address addr) public view returns(uint256) {\n        return userDividendPerToken[addr];\n    }\n\n function getAmt(address addr) public view returns(uint256) {\n        return amt[addr];\n    }\n\n\n function totalSupply() public view returns (uint256) {\n        return totalSupply_;\n    }\n\n\n  function allowance(\n    address _owner,\n    address _spender\n   )\n    public\n    view override\n    returns (uint256)\n  {\n        return (allowed[_owner][_spender]);\n  }\n\n   function balanceOf(address _owner) external view override returns(uint256) {\n        return balance[_owner];\n  }\n\n  function getBalance(address _addr) external view returns(uint256) {\n        return address(_addr).balance;\n    }\n  // IMintableToken\n\n  function mint() updateDividend(msg.sender) external payable override {\n        require(msg.value != 0,\"Ether passed should be non zero\");\n        _mint(msg.sender, msg.value);\n  }\n\n\n\n   function _mint(address account, uint256 amount) internal {\n        require(account != address(0), \"ERC20: mint to the zero address\");\n\n        totalSupply_ = totalSupply_.add(amount);\n        balance[account] = balance[account].add(amount);\n        emit Transfer(address(0), account, amount);\n    }\n\n   function burn(address _addr) updateDividend(msg.sender) external override{\n        _burn(_addr, balance[_addr]);\n    }\n\n\n\n  // IDividends\n\n  function recordDividend() external payable override {\n\n        require(totalSupply() != 0, \"No tokens minted\");\n        dividendPerToken += msg.value * MULTIPLIER / totalSupply();\n\n  }\n\n  \n   function getWithdrawableDividend(address payee) external  view override returns (uint256) {\n   \n        uint256 holderBalance = balance[payee];\n        require(holderBalance != 0, \"DToken: caller possess no shares\");\n        uint256 amount = ( (dividendPerToken - userDividendPerToken[payee]) * holderBalance );\n        amount += amt[payee];\n        return amount;\n  }\n\n  function withdrawDividend(address payable payee) external override {\n        \n        uint256 holderBalance = balance[payee];\n        require(holderBalance != 0, \"DToken: caller possess no shares\");\n\n        uint256 amount = ( (dividendPerToken - userDividendPerToken[payee]) * holderBalance );\n        amount += amt[payee];\n        amt[payee] = 0;\n        userDividendPerToken[payee] = dividendPerToken;\n\n       (bool success, ) = payable(payee).call{value: amount}(\"\");        \n\n    }\n\nfunction _burn(address account, uint256 amount) internal {\n       \n        require(account != address(0), \"ERC20: burn from the zero address\");\n        totalSupply_ = totalSupply_.sub(amount);\n        emit Transfer(account, address(0), amount);\n\n    }\n\n//---------   view functions\n\n \n\n\n//Events\n   event Transfer(\n        address indexed from,\n        address indexed to,\n        uint256 value\n    );\n    \n    event Approval(\n    address indexed owner,\n    address indexed spender,\n    uint256 value\n    );\n}\n\n\n// 0x5B38Da6a701c568545dCfcB03FcB875f56beddC4 50\n// 0xAb8483F64d9C6d1EcF9b849Ae677dD3315835cb2 50 49\n// 0x4B20993Bc481177ec7E8f571ceCaE8A9e22C02db 1\n\n\n// 0xAb8483F64d9C6d1EcF9b849Ae677dD3315835cb2\n\n// 0x0A098Eda01Ce92ff4A4CCb7A4fFFb5A43EBC70DC 9th\n// 0x17F6AD8Ef982297579C203069C1DbfFE4348c372 6th\n\n\n/*\n\ncase 1 :\nmint 100  from 0\nmint 500 from 1\nrecord dividend from owner acc(ideally) 100000\ndividendpertoken : 994035785288270377\nfor 0 , getWithdrawableDividend : 99403578528827037700\nfor 1 , getWithdrawableDividend : 497017892644135188500\ntx 10 token to 2 from 0, xDividendPerToken : 994035785288270377\n\n*/",
  "sourcePath": "/Users/wasim/temo/SumeruDividendContract/Sumeru/contracts/DividendContApproachOne.sol",
  "compiler": {
    "name": "solc",
    "version": "0.8.4+commit.c7e474f2.Linux.g++"
  },
  "schemaVersion": "3.4.3",
  "updatedAt": "2022-04-12T05:26:13.938Z",
  "networkType": "ethereum",
  "devdoc": {
    "kind": "dev",
    "methods": {
      "getWithdrawableDividend(address)": {
        "returns": {
          "_0": "the withdrawable dividend."
        }
      },
      "mint()": {
        "details": "Deposit ETH and mint equal no. of tokens to the caller's balance. Throws error if no ETH is supplied."
      }
    },
    "version": 1
  },
  "userdoc": {
    "kind": "user",
    "methods": {
      "getWithdrawableDividend(address)": {
        "notice": "Get current withdrawable dividend for given payee."
      },
      "recordDividend()": {
        "notice": "Record a new dividend to be paid to all current token holders. Dividend amount equals `msg.value`. Each token holder should be assigned a percentage of dividend according  to their proportion of the token supply. Throws an error if no ETH is supplied."
      }
    },
    "version": 1
  }
}